:020000040800F2
:100000000000022025340008D92A0008DB2A000855
:10001000DD2A0008DF2A0008E12A000800000000AD
:10002000000000000000000000000000211F000888
:10003000E32A000800000000B11F00081520000896
:1000400075340008753400087534000875340008EC
:1000500075340008753400087534000875340008DC
:1000600075340008753400087534000875340008CC
:1000700075340008753400087534000875340008BC
:1000800075340008753400087534000875340008AC
:10009000753400087534000875340008753400089C
:1000A000753400087534000875340008753400088C
:1000B000753400087534000875340008753400087C
:1000C000753400087534000875340008753400086C
:1000D00075340008CD2A000875340008753400080E
:1000E000753400087534000875340008753400084C
:1000F000753400087534000875340008753400083C
:10010000753400087534000875340008753400082B
:100110007534000875340008E52A0008F12A000843
:10012000753400087534000875340008753400080B
:10013000753400080000000000000000753400085D
:1001400075340008753400087534000875340008EB
:1001500075340008753400087534000875340008DB
:1001600075340008753400087534000875340008CB
:10017000753400087534000875340008000000006C
:1001800000000000753400080000000000000000BE
:1001900075340008000000000000000075340008FD
:1001A000000000000000000000000000753400089E
:1001B000753400087534000875340008753400087B
:0401C000753400088A
:1001D00010B5054C237833B9044B13B10448AFF381
:1001E00000800123237010BD1400002000000000D7
:1001F000D034000808B5034B1BB103490348AFF3E3
:10020000008008BD0000000018000020D034000865
:1002100053B94AB9002908BF00281CBF4FF0FF316D
:100220004FF0FF3000F072B9ADF1080C6DE904CE6B
:1002300000F006F8DDF804E0DDE9022304B07047C1
:100240002DE9F047089E04468846002B4BD18A4290
:10025000154667D9B2FA82F24AB1C2F1200701FA13
:1002600002F320FA07F7954047EA030894404FEA63
:10027000154E230CB8FBFEF71FFA85FC0EFB178802
:1002800043EA084307FB0CF1994209D9EB1807F13F
:10029000FF3080F01B81994240F21881023F2B44CD
:1002A0005B1AA4B2B3FBFEF00EFB103344EA034426
:1002B00000FB0CFCA44509D92C1900F1FF3380F098
:1002C0000781A44540F2048102382C4440EA0740EB
:1002D000A4EB0C0400271EB1D4400023C6E9004360
:1002E0003946BDE8F0878B4209D9002E00F0EB803B
:1002F0000027C6E9000138463946BDE8F087B3FA61
:1003000083F7002F47D18B4202D3824200F2FA805A
:10031000841A61EB030301209846002EE0D0C6E961
:100320000048DDE702B9FFDEB2FA82F2002A40F0AF
:100330008F80491B4FEA154E1FFA85F80127B1FB44
:10034000FEFC230C0EFB1C1143EA014308FB0CF1DD
:10035000994207D9EB180CF1FF3002D2994200F212
:10036000CD808446591AA3B2B1FBFEF00EFB1014E7
:1003700043EA044408FB00F8A04507D92C1900F112
:10038000FF3302D2A04500F2B6801846A4EB080461
:1003900040EA0C409FE7C7F1200CBB4022FA0CFE5C
:1003A0004EEA030E01FA07F420FA0CF521FA0CF3D9
:1003B0004FEA1E482543B3FBF8F92C0C08FB193310
:1003C0001FFA8EFA44EA034309FB0AF49C4202FA3C
:1003D00007F200FA07F10BD91EEB030309F1FF3016
:1003E00080F087809C4240F28480A9F10209734426
:1003F0001B1BADB2B3FBF8F008FB103345EA034416
:1004000000FB0AFAA24508D91EEB040400F1FF33F1
:100410006BD2A24569D90238744440EA0940A0FB76
:100420000289A4EB0A044C45C2464B4654D351D032
:10043000002E69D0B1EB0A0564EB030404FA0CFC4E
:10044000FD40FC404CEA0505C6E90054002747E79B
:10045000C2F1200320FA03F7954001FA02F021FAD5
:1004600003F34FEA154E3843010CB3FBFEF71FFAB6
:1004700085F80EFB173341EA034107FB08F38B4273
:1004800004FA02F407D9691807F1FF3C2FD28B4216
:100490002DD9023F2944CB1A81B2B3FBFEF00EFBEB
:1004A000103341EA034100FB08F38B4207D9691876
:1004B00000F1FF3C17D28B4215D902382944C91AE2
:1004C00040EA07473BE73746304609E70746E7E695
:1004D0001846FBE64145ABD2B8EB020A69EB0E02C7
:1004E00001381346A4E76046E9E7184695E76746F2
:1004F000D1E781467CE702382C4447E7ACF1020C97
:100500002B442FE7384608E73746E9E6704700BF37
:1005100008B50B4B1A6842F400721A601A6842F46C
:1005200080621A601A6842F480721A60032000F038
:1005300009F8002002F08CFA02F0D4F9002008BD7E
:10054000003C0240074AD36823F4E0631B041B0C01
:1005500043F0BF63000243F4003300F4E060034360
:10056000D360704700ED00E0174B70B5DC68C4F352
:100570000224C4F10705042D04F1040328BF042557
:100580004FF0FF36062B06FA05F38CBF033C002420
:1005900021EA0303A34006FA04F422EA0404002833
:1005A00043EA0403A8BF00F160404FEA0313BCBF55
:1005B00000F00F00054ADBB2AABF00F561401354FA
:1005C00080F8003370BD00BF00ED00E014ED00E0E6
:1005D000002808DB4209012300F01F0003FA00F0A5
:1005E000014B43F82200704700E100E090F83530FD
:1005F000022B03D080234365012070470268052346
:1006000080F83530136823F0010313600020704731
:100610002DE9F04F85B00B68DFF8A081654ADFF85F
:10062000A091019300234FF0010C019C0CFA03FCF4
:1006300004EA0C06B44540F0AA804C6824F0100788
:10064000022F16D14FEAD30A00EB8A0A03F0070BF8
:10065000DAF820504FEA8B0B4FF00F0E0EFA0BFE1C
:1006600025EA0E0E0D6905FA0BF545EA0E05CAF8E6
:1006700020504FEA430A0325D0F800B005FA0AF5E6
:10068000ED4304F0030E05EA0B0B0EFA0AFE013FE0
:100690004EEA0B0E012FC0F800E011D8876807EA78
:1006A000050BCF6807FA0AFE4EEA0B07876047681A
:1006B00027EA0C0CC4F300179F4047EA0C07476079
:1006C000C7683D408F6807FA0AF73D43C560E500FB
:1006D0005DD54FF0000BCDF80CB0D8F84470364D16
:1006E00047F48047C8F84470D8F8447007F480474E
:1006F0000397039F23F0030707F1804707F59C3713
:1007000003F0030ED7F808A04FEA8E0E4FF00F0C3F
:100710000CFA0EFCA8422AEA0C0C3FD005F58065C5
:10072000A8423DD005F58065A8423BD005F580651F
:10073000A84239D005F58065A84237D0484537D062
:1007400005F50065A84214BF0725062505FA0EF534
:1007500045EA0C05BD601568F74314F4803F0CBFF3
:100760003D4035431560556814F4003F0CBF3D40D3
:1007700035435560956814F4801F0CBF3D403543E8
:100780009560D568A40254BF3D403543D560013320
:10079000102B7FF448AF05B0BDE8F08F5D46D5E77C
:1007A0000125D3E70225D1E70325CFE70425CDE7CF
:1007B0000525CBE7003C0140000002400038024024
:1007C000001402400369194214BF01200020704741
:1007D0000AB1816170470904FBE7000037B50023C7
:1007E0000193184B184C1A6C42F080521A641B6C1F
:1007F00003F080530193019B144B01221A6002F015
:10080000FBF905466368DA030BD5114B0E4C012248
:100810001A6002F0F1F9054663689B030AD50020CF
:1008200006E002F0E9F9401BB0F57A7FEAD903202F
:1008300003B030BD02F0E0F9401BB0F57A7FEBD990
:10084000F5E700BF003802400070004040000E4253
:1008500044000E422DE9F0410D46044610B9012036
:10086000BDE8F081434B1A6802F00F028A4227D399
:1008700021688F072CD4C8073FD43E4B1A6802F07A
:100880000F02AA4264D8226851076AD4130707D519
:10089000394A2169936823F4604343EAC1039360B2
:1008A00000F0B4F8344B354A9B68C3F30313D35CB0
:1008B000D840334B1860002002F0CAF80020CFE780
:1008C000CAB21A701B6803F00F038B42C7D1CFE77F
:1008D000294B11F0040F1EBF9A6842F4E0529A604F
:1008E0000E0742BF9A6842F460429A609A68A06814
:1008F00022F0F00202439A60BDE762681E4B012AB3
:100900001CD11B6813F4003FA9D01B4EB36823F021
:1009100003031343B36002F06FF941F288380746CE
:10092000B368626803F00C03B3EB820FA5D002F04A
:1009300063F9C01B4045F3D9032091E7911E0129BB
:100940001B6802D813F0007FDEE713F0020FDBE72D
:10095000EAB21A701B6803F00F03AB427FF47FAF5B
:1009600091E70549E0688B6823F4E05303438B600B
:100970008CE700BF003C02400038024015350008FB
:1009800010000020014B1868704700BF10000020C5
:10099000044B054A9B68C3F38223D35C034A106867
:1009A000D84070470038024025350008100000206C
:1009B000044B054A9B68C3F34233D35C034A106877
:1009C000D84070470038024025350008100000204C
:1009D0000F2303600B4B9A6802F0030242609A688F
:1009E00002F0F00282609A6802F4E052C2609B68F2
:1009F000DB0803F4E0530361034B1B6803F00F03B0
:100A00000B60704700380240003C0240204908B5A6
:100A10008B6803F00C03082B07D00C2B20D01D484B
:100A20001D4A042B18BF104608BD4A684B68496828
:100A300013F4800314BF17481748C1F3881118BF77
:100A4000002302F03F02A1FB0001FFF7E1FB104B86
:100A50005B68C3F3014301335B00B0FBF3F0E3E7F2
:100A60004A684B68496813F4800314BF09480A4870
:100A7000C1F3881118BF002302F03F02A1FB00015F
:100A8000FFF7C6FB024B5B68C3F30273E5E700BFE9
:100A90000038024000127A000024F40003682DE9B7
:100AA000F341DF07044610D423689E0767D4236808
:100AB0001A0700F1B28023685B0700F1D080A269B9
:100AC000002A40F0398100201EE0974B9A6802F01E
:100AD0000C02042A10D09A6802F00C02082A02D1F3
:100AE0005B685D0208D4904B9A6802F00C020C2AF5
:100AF0000DD15A6850020AD58B4B1B689903D3D588
:100B00006368002BD0D1012002B0BDE8F08162689B
:100B1000B2F5803F11D11A6842F480321A6002F0B7
:100B20006BF8814D06462B689A03BDD402F064F839
:100B3000801B6428F7D90320E6E77B4DB2F5A02F90
:100B40002B6807D143F480232B602B6843F4803358
:100B50002B60E4E723F480332B602B6823F480239D
:100B60002B60002ADBD102F047F806462B689B0376
:100B70009AD502F041F8801B6428F7D9DBE76A4B6D
:100B80009A6812F00C0F10D09A6802F00C02082A32
:100B900002D15B685F0208D5634A936803F00C03D7
:100BA0000C2B11D153685E020ED45F4B1A68950767
:100BB00002D5E268012AA6D11A68216922F0F8025A
:100BC00042EAC1021A6072E7E268584BB2B10122F0
:100BD0001A6002F011F8544D06462B68980707D5A5
:100BE0002B68226923F0F80343EAC2032B605EE717
:100BF00002F002F8801B0228EFD99CE71A6001F08E
:100C0000FBFF494D06462B6899077FF550AF01F071
:100C1000F3FF801B0228F6D98DE76269444B7AB155
:100C200001221A6001F0E8FF3F4D06466B6F9F07F7
:100C30003FF541AF01F0E0FF801B0228F6D97AE7CB
:100C40001A6001F0D9FF384D06466B6F98077FF5A3
:100C500032AF01F0D1FF801B0228F6D96BE7324B8F
:100C60001A6C12F0805228D101921A6C42F0805214
:100C70001A641B6C03F080530193019B01262D4DD8
:100C80002B68D9051BD5A368274D012B27D12B6FC6
:100C900043F001032B6701F0AFFF234D074641F2FC
:100CA00088382B6F9B0739D5002E3FF408AF1E4ABA
:100CB000136C23F08053136401E70026DFE72B68F1
:100CC00043F480732B6001F097FF07462B68DA0529
:100CD000D9D401F091FFC01B0228F7D92BE7052BCF
:100CE00004D12B6F43F004032B67D0E72A6F22F067
:100CF00001022A672A6F22F004022A67002BCAD158
:100D000001F07AFF41F2883807462B6F9807CBD560
:100D100001F072FFC01B4045F7D90CE701F06CFFF2
:100D2000C01B4045BDD906E70038024000004742DD
:100D3000800E474200700040234DAB6803F00C0367
:100D4000082B3FF4E0AE214E0023022A33602DD160
:100D500001F052FF07462B68990121D4D4E90732EC
:100D60001343626A43EA8213E26A43EA0263226B34
:100D700043EA0273A26A144C5208013A43EA02435E
:100D80006B600123336001F037FF054623689A0149
:100D90003FF599AE01F030FF401B0228F6D9CAE6B4
:100DA00001F02AFFC01B0228D5D9C4E601F024FFB8
:100DB00004462B689B017FF586AE01F01DFF001BEA
:100DC0000228F6D9B7E600BF00380240600047426B
:100DD0000368DA6842F00102DA609A6802F00702FA
:100DE000062A1EBF1A6842F001021A6000207047EE
:100DF000704770477047704703681A69910710B5CC
:100E000004460ED5DA6892070BD56FF002021A611C
:100E10009B6901229B07027777D0FFF7EAFF002347
:100E2000237723681A69500710D5DA6851070DD562
:100E30006FF004021A619B69022213F4407F22774B
:100E4000204668D0FFF7D5FF0023237723681A696F
:100E500012070FD5DA6810070CD56FF008021A6177
:100E6000DB6904229907227720465AD0FFF7C1FF99
:100E70000023237723681A69D20610D5DA68D006D2
:100E80000DD56FF010021A61DB69082213F4407F60
:100E9000227720464BD0FFF7ACFF0023237723684F
:100EA0001A69D10708D5DA68D20705D56FF00102B3
:100EB0001A61204601F00CFD23681A69100608D556
:100EC000DA68110605D56FF080021A61204600F03D
:100ED000D4F823681A69520608D5DA68500605D591
:100EE0006FF040021A612046FFF785FF23681A69F8
:100EF000910622D5DA6892061FD56FF020022046AF
:100F00001A61BDE8104000F0B7B8FFF771FF204646
:100F1000FFF770FF83E7FFF76BFF2046FFF76AFFDD
:100F200092E7FFF765FF2046FFF764FFA0E7FFF7B2
:100F30005FFF2046FFF75EFFAFE710BD304A036852
:100F4000904212D0B0F1804F0FD0A2F57C42904277
:100F50000BD002F58062904207D002F58062904289
:100F600003D002F57842904219D14A6823F0700309
:100F70001343234A904229D0B0F1804F26D0A2F5E6
:100F80007C42904222D002F5806290421ED002F54F
:100F9000806290421AD002F57842904216D0194AE7
:100FA000904213D002F5806290420FD002F5806229
:100FB00090420BD0A2F59832904207D002F58062A1
:100FC000904203D002F58062904203D1CA6823F4B4
:100FD000407313434A6923F08003134303608B6813
:100FE000C3620B688362064B984203D003F58063AB
:100FF000984201D10B69036301234361704700BF2D
:10100000000001400040014010B50446A0B190F836
:101010003D3003F0FF021BB980F83C2001F082FC58
:10102000022384F83D302068211DFFF787FF01234C
:1010300084F83D30002010BD0120FCE790F83C30E2
:10104000012B30B54FF0020314D0046880F83D3016
:101050006268A3680D68496822F0700223F080037B
:101060000B432A436260A360012380F83D300023D4
:1010700080F83C30184630BD704770470368DA6826
:1010800022F49072DA605A6922F001025A61202338
:1010900080F83A30704700002DE9F8430368C168D2
:1010A0001A69044622F440520A431A612569A2686B
:1010B000D968C0692A43656921F416412A4321F0A1
:1010C0000C0102430A43DA605A69A16922F44072B2
:1010D0000A43B0F5004F5A617A4A7BD1934203D05C
:1010E00002F58062934244D1FFF762FC67681925DC
:1010F0004FF0640805FB00F37F00B3FBF7F3B3FB8D
:10110000F8F31F01FFF754FC636868435B00B0FB12
:10111000F3F6FFF74DFC636868435B00B0FBF3F345
:10112000B3FBF8F308FB1363DB003233B3FBF8F3D4
:101130005B0003F4F876FFF73BFC626868435200FB
:10114000B0FBF2F9FFF734FC6368226868435B0088
:10115000B0FBF3F3B3FBF8F308FB1393DB0032337C
:10116000B3FBF8F303F007033B4433449360BDE85B
:10117000F883FFF70DFC676819254FF0640805FB3D
:1011800000F37F00B3FBF7F3B3FBF8F31F01FFF7A6
:10119000FFFB636868435B00B0FBF3F6FFF7F8FB07
:1011A000636868435B00B0FBF3F3B3FBF8F308FB41
:1011B0001363DB003233B3FBF8F35B0003F4F87620
:1011C000FFF7E6FB626868435200B0FBF2F9FFF7F5
:1011D000DFFBB9E7934202D03B4A934241D1FFF78C
:1011E000E7FB676819254FF0640805FB00F3BF00B3
:1011F000B3FBF7F3B3FBF8F31F01FFF7D9FB636809
:1012000068439B00B0FBF3F6FFF7D2FB63686843CB
:101210009B00B0FBF3F3B3FBF8F308FB13631B0174
:101220003233B3FBF8F303F0F006FFF7C1FB62685B
:1012300068439200B0FBF2F9FFF7BAFB63682268DB
:1012400068439B00B0FBF3F3B3FBF8F308FB139385
:101250001B013233B3FBF8F303F00F0333433B447A
:1012600084E7FFF795FB676819254FF0640805FBD5
:1012700000F3BF00B3FBF7F3B3FBF8F31F01FFF775
:1012800087FB636868439B00B0FBF3F6FFF780FBC6
:10129000636868439B00B0FBF3F3B3FBF8F308FB10
:1012A00013631B013233B3FBF8F303F0F006FFF7CF
:1012B0006FFB626868439200B0FBF2F9FFF768FBCE
:1012C000BCE700BF0010014000140140F8B504461F
:1012D0000E4617461D4621680B6836EA030301D106
:1012E000002014E06B1CF7D095B92368DA6822F46B
:1012F000D072DA605A6922F001025A61202384F820
:10130000393084F83A30002384F838300320F8BDAF
:1013100001F072FCC01B8542DDD2E6E710B5044641
:1013200040B390F8393003F0FF021BB980F8382041
:1013300001F01AFB2268242384F83930D36823F49F
:101340000053D3602046FFF7A7FE23681A6922F4F2
:1013500090421A615A6922F02A025A61DA6842F40C
:101360000052DA6000202023E06384F8393084F8EA
:101370003A3010BD0120FCE72DE9F0411F4690F8FE
:101380003930202B04460D4690464DD1002949D0D6
:10139000002A47D090F83830012B45D0012380F83F
:1013A00038300023C363212380F8393001F024FC56
:1013B000A4F824800646A4F82680E38C9BB263B987
:1013C0003B46324640212046FFF780FFA8B9202344
:1013D00084F8393084F8380010E0E38C013B9BB28C
:1013E000E384A368B3F5805F32463B464FF080014B
:1013F00020460ED1FFF76AFF10B10320BDE8F0814F
:101400002B882268C3F308035360236943B902356C
:10141000D3E7FFF75BFF0028EFD123682A785A60F3
:101420000135CAE70120E9E70220E7E72DE9F041AD
:101430001F4690F83A30202B04460D46904653D173
:1014400000294FD0002A4DD090F83830012B4BD0D6
:10145000012380F838300023C363222380F83A3018
:1014600001F0CAFBA4F82C800646A4F82E80E08D7B
:1014700080B228B9202384F83A3084F8380010E08C
:10148000E38D013B9BB2E385A368B3F5805F3246F1
:101490003B464FF02001204616D1FFF717FF10B151
:1014A0000320BDE8F081226923683AB95A682B46C7
:1014B000C2F3080223F8022B1D46D8E75A682B46D0
:1014C000D2B223F8012BF7E7FFF700FF0028E7D19E
:1014D0002268216952686B1C09B92A70ECE702F096
:1014E0007F02FAE70120DCE70220DAE77047704765
:1014F00090F83A30222B10B533D181680469836AA1
:101500000268B1F5805F23D15268ECB9C2F30802DA
:1015100023F8022B8362C48D013CA4B2C4858CB92C
:101520000368DA6822F02002DA60DA6822F4807256
:10153000DA605A6922F001025A61202380F83A30B9
:10154000FFF7D5FF00200DE0D2B223F8012BE1E731
:10155000591C526881620CB91A70DCE702F07F02F4
:10156000FAE7022010BD704703681A68D96870B5A1
:10157000160704465D6907D1960658D58D0656D5DF
:10158000BDE87040FFF7B4BF15F0010502D111F4BA
:10159000907F4CD0D30705D5CE0542BFE36B43F017
:1015A0000103E363500704D51DB1E36B43F002036D
:1015B000E363930704D51DB1E36B43F00403E363D6
:1015C000160704D51DB1E36B43F00803E363E36B37
:1015D00043B3950604D5880602D52046FFF788FF59
:1015E00023685D69E26B1107204602D415F04005BF
:1015F00019D0FFF743FD23685A6952060FD55A697F
:10160000606B22F040025A6148B1264B0365FEF739
:10161000EDFF38B1606BBDE87040036D18472046A0
:10162000FFF7A1FF70BDFFF79EFFE563FAE716061F
:1016300028D50D0626D594F83920212AF2D1A168A3
:10164000226AB1F5805F18D11188C1F30801596091
:10165000216981B902322262E28C013A92B2E284BB
:10166000002ADFD1DA6822F08002DA60DA6842F01C
:101670004002DA60D6E70132EDE7511C21621278B0
:101680005A60E9E75006CDD54A06CBD5DA6822F094
:101690004002DA60202384F839302046FFF726FF25
:1016A000C0E700BFA916000808B5806B0023C385FA
:1016B000C384FFF758FF08BD08B500F037FA0020D3
:1016C00008BD70B5054646692A69B5F908400B465C
:1016D00086B0D0E9001076B1AD6965B1842C14BF35
:1016E00003340024CDE90165009400F0BBF90590B6
:1016F000059806B070BD842C14BF0334002405ADDA
:1017000092B2CDE9004500F0E4F90128F0D00020C4
:10171000EFE700F108034FF0FF324360C0E9022316
:10172000036100230360704700230361704743682F
:101730004B609A688A609A68516099600368086192
:101740000133036070470A68531C30B50AD103693E
:101750005A684A6091608B60596003680861013380
:10176000036030BD00F108035C6825689542EFD83E
:101770002346F9E7D0E9011203698A608268516063
:101780005968814208BF5A60002202611A68013A12
:101790001A601868704700002DE9F041064600F015
:1017A000D1FB2E4B2E4C1A682E4F01321A60256841
:1017B000002D48D126601B68012B1FD14FF0140863
:1017C00008FB05700135FFF7A4FF072DF8D1DFF8FE
:1017D000C080254D4046FFF79CFF2846FFF799FF44
:1017E0002248FFF796FF2248FFF793FF2148FFF7B3
:1017F00090FF214BC3F80080204B1D60204A2149F7
:101800001368086801331360F26A012393400343AD
:1018100014200B6000FB0270311DFFF788FF00F001
:10182000B3FB194B1B6863B12368DA6AF36A9A4207
:1018300007D2164B4FF080521A60BFF34F8FBFF3A1
:101840006F8FBDE8F081104B1B68002BD6D1236849
:10185000DA6AF36A9A4298BF2660CFE7C800002090
:10186000300000203C000020F40000201001002087
:101870003C01002028010020340000203800002016
:10188000D8000020DC0000202401002004ED00E04E
:10189000E000002010B590F8513004463BB9006BD1
:1018A00000F01EFD2046BDE8104000F019BD012BE0
:1018B000F9D0022B08D04FF0500383F31188BFF307
:1018C0006F8FBFF34F8FFEE710BD000080B5144E41
:1018D000144F154C154D23686BB9154B1B68012B24
:1018E00006D94FF080533B60BFF34F8FBFF36F8F2C
:1018F00000F02EFDEDE700F025FBF368D3F80C8037
:1019000008F10400FFF736FF2B68013B2B602368CA
:10191000013B236000F038FB4046FFF7BBFFDAE7EE
:101920003C01002004ED00E0CC000020C8000020B5
:101930003C000020064A13681968064B19B94FF09D
:10194000FF321A6070471268D268D2685268F8E7AE
:1019500034000020080100202DE9F047DDE909846A
:1019600002F18042266B013A06EB82069A468146D6
:101970004B1E26F0070604F134020F3113F8010F55
:1019800002F8010B187808B18B42F7D1089D062D9B
:1019900028BF06250027E562C4E91157201D84F8F9
:1019A0004370FFF7C1FEC5F1070504F11800FFF70A
:1019B000BBFEE7642461A561646284F850705246FE
:1019C0004946304600F094FA2060B8F1000F01D08B
:1019D000C8F80040BDE8F087F8B51B4B1B4E1C68EB
:1019E0000546306804300F46FFF7C4FE334640B961
:1019F0003168174EC96A32680120884022EA000225
:101A000032606A1C07D137B1196812480431BDE849
:101A1000F840FFF78CBE1A686419546007D30E4A69
:101A200010681968BDE8F8400431FFF78CBE0B4A16
:101A3000106819680431FFF786FE094B1A68A24244
:101A400088BF1C60F8BD00BF50010020300000209E
:101A5000DC00002028010020380000203400002095
:101A60000801002070B586B0DDE90B5445B94FF090
:101A7000500383F31188BFF36F8FBFF34F8FFEE7DF
:101A800044B94FF0500383F31188BFF36F8FBFF356
:101A90004F8FFEE754260496049E542E08D04FF034
:101AA000500383F31188BFF36F8FBFF34F8FFEE7AF
:101AB0002563022584F8515005AD01950A9D0294D5
:101AC0000095FFF749FF2046FFF766FE059806B030
:101AD00070BD2DE9F043074685B090008846164654
:101AE000994600F071FB0546E8B1542000F06CFB0C
:101AF0000446A8B1002380F851300D9B0563019383
:101B00000C9B0290009332464B4641463846FFF705
:101B100023FF2046FFF740FE012005B0BDE8F0831B
:101B2000284600F0DDFB4FF0FF30F6E710B588B037
:101B3000002407AA06A905A8CDE9054400F00AFC7F
:101B4000059B0293069B079A0E490F48CDE9004377
:101B50002346FFF787FF90B14FF0500383F31188BE
:101B6000BFF36F8FBFF34F8F084B4FF0FF321A60F8
:101B7000074B01221A60074B1C6000F07BFA08B08B
:101B800010BD00BF04350008CD1800080801002072
:101B90002401002050010020024A13680133136021
:101BA000704700BFD40000202DE9F84F3C4B1B6864
:101BB000002B6ED13B4B1C6801341C60BCB93A4B06
:101BC0001A68126842B14FF0500383F31188BFF3D3
:101BD0006F8FBFF34F8FFEE7344A196810681860A3
:101BE0001160334A136801331360FFF7A3FE314DD0
:101BF000314F2B68A3424FF0000B11D93A682F4B9D
:101C0000D16A14224A439A58022A28BF4FF0010B86
:101C10002B4A1268002A0CBF58460120BDE8F88FF5
:101C2000DFF884A0DFF8A090DAF8002012681AB973
:101C30004FF0FF322A60E1E7DAF80020D268D66878
:101C400071688C4201D22960D8E706F10408404649
:101C5000FFF790FDB16A19B106F11800FFF78AFD90
:101C6000F06AD9F80030012202FA00F11943134B4F
:101C7000C9F800104FF0140C41460CFB0030FFF780
:101C800056FD3868F16AC26A914228BF4FF0010BD5
:101C9000CAE70C4A1368013313604FF0000BB7E733
:101CA000D400002050010020340000203800002023
:101CB0000C01002008010020300000203C00002022
:101CC00054010020D0000020DC0000202DE9F84362
:101CD000304C236843B94FF0500383F31188BFF3AE
:101CE0006F8FBFF34F8FFEE700F02CF92368013BA5
:101CF000236024682CB1002400F046F92046BDE89A
:101D0000F883254B1B68002BF5D0244D244EDFF8BB
:101D1000A4801FE0EB68DC6804F1040904F11800FA
:101D2000FFF728FD4846FFF725FDE26A31680127E5
:101D300007FA02F314200B4300FB0280494633608C
:101D4000FFF7F5FC174BE26A1B68DB6A9A4201D386
:101D5000154B1F602B68002BDCD10CB1FFF7EAFD9F
:101D6000124D2C6844B1104E0127FFF71DFF00B142
:101D70003760013CF9D12C600B4B1B68002BBAD0AB
:101D80000B4B4FF080521A60BFF34F8FBFF36F8F32
:101D90000124B1E7D4000020C80000201001002079
:101DA000DC0000203000002054010020D000002082
:101DB00004ED00E03C00002008B540B90E4B4FF0A8
:101DC00080521A60BFF34F8FBFF36F8F08BD0B4B6C
:101DD000196841B14FF0500383F31188BFF36F8F3F
:101DE000BFF34F8FFEE7FFF7D7FEFFF7F5FDFFF7D5
:101DF0006DFF0028E2D0E9E704ED00E0D400002008
:101E0000174B1A68174B10B512B101221A6010BD9A
:101E10001A60154B1B68B3FA83F3DBB2C3F11F03DF
:101E2000142212495A4388188C5844B94FF0500371
:101E300083F31188BFF36F8FBFF34F8FFEE74468C2
:101E40000832646844600A44944204BF6268426095
:101E5000142202FB03135B68DA68054BD6E700BF68
:101E6000D400002054010020DC0000203C000020B1
:101E70003000002082B0002301930D4B1B6801331A
:101E800008D04FF0500383F31188BFF36F8FBFF377
:101E90004F8FFEE74FF0500383F31188BFF36F8F2E
:101EA000BFF34F8F019B002BFCD002B0704700BFE7
:101EB0000000002008480068006880F308884FF0A0
:101EC000000080F3148862B661B6BFF34F8FBFF392
:101ED0006F8F00DF00BF000008ED00E0DFF80C00AE
:101EE000016841F4700101607047000088ED00E076
:101EF0004FF0807340F8043C074B40F80C3C21F055
:101F000001016FF0020340F8081C40F8202C40F853
:101F1000243C4438704700BF751E000800000000D4
:101F2000074B19680868B0E8F04F80F30988BFF3E1
:101F30006F8F4FF0000080F311887047AFF300807F
:101F4000300000204FF0500383F31188BFF36F8FF0
:101F5000BFF34F8F0A4A13680133012B13600DD171
:101F6000084B1B6813F0FF0F08D04FF0500383F3AA
:101F70001188BFF36F8FBFF34F8FFEE7704700BF2D
:101F80000000002004ED00E0084A136843B94FF058
:101F9000500383F31188BFF36F8FBFF34F8FFEE7BA
:101FA000013B13600BB983F31188704700000020D8
:101FB000EFF30980BFF36F8F154B1A681EF0100FF7
:101FC00008BF20ED108A20E9F04F10602DE90900CC
:101FD0004FF0500080F31188BFF34F8FBFF36F8F26
:101FE000FFF70EFF4FF0000080F3118809BC19685D
:101FF0000868B0E8F04F1EF0100F08BFB0EC108A70
:1020000080F30988BFF36F8F704700BFAFF3008084
:102010003000002008B54FF0500383F31188BFF360
:102020006F8FBFF34F8FFFF7BFFD18B1034B4FF01A
:1020300080521A60002383F3118808BD04ED00E08C
:10204000084A0949002313600B60084B4FF47A716A
:102050001B68B3FBF1F30649013B0B6007231360D8
:10206000704700BF10E000E018E000E01000002022
:1020700014E000E0394B3A4A13B51968914208D18F
:102080004FF0500383F31188BFF36F8FBFF34F8F6F
:10209000FEE71A68334B9A4208D14FF0500383F39E
:1020A0001188BFF36F8FBFF34F8FFEE72E4B1A7867
:1020B000D2B20192FF221A701B782C4ADBB28DF843
:1020C00003309DF8033003F050031370284B0722B0
:1020D0001A6000219DF80300000602F1FF340DD4C0
:1020E00001B11A601A68032A11D04FF0500383F32C
:1020F0001188BFF36F8FBFF34F8FFEE79DF803206A
:102100005200D2B28DF8032001212246E2E71202EA
:1021100002F4E0621A60019B134ADBB21370154BA4
:102120001A6842F470021A601A6842F070421A602B
:10213000FFF786FF104B00241C60FFF7CFFE0F4A0D
:10214000136843F040431360FFF7B4FEFFF758FEF7
:10215000FFF790FE204602B010BD00BF00ED00E08A
:1021600071C20F4170C20F4100E400E0580100202D
:102170005C01002020ED00E00000002034EF00E0D2
:1021800010B50F4B1A68824218D35C68191988423F
:1021900001BF4168184609195960446801198A420B
:1021A00007D1084909688A421FBF51681268091996
:1021B00041609842026018BF186010BD1346E1E705
:1021C000703D0020600100202DE9F0410446FFF73A
:1021D000E3FC3D493D4D0B68FBB93D4A560702F50E
:1021E00070531DBF073222F007029B1A4FF4705341
:1021F0001344384E083B23F0070300207060326020
:10220000C3E90000981A0B60C2E90030324B186035
:10221000324B18604FF000432B602F6827424ED19D
:10222000002C3FD004F1080358071CBF23F007031C
:102230000833002B43D0294A16689E4290463ED36D
:10224000244A15686868984201D22C68A4B90968C4
:10225000A94234D0296814681160C21A102A12D910
:10226000E81841070BD04FF0500383F31188BFF3F8
:102270006F8FBFF34F8FFEE72A462546E2E74260A5
:102280006B60FFF77DFF14496B680868F61A1F43FF
:1022900086424FF00003C8F8006038BF0E60083473
:1022A0006F602B60FFF712FD63070AD04FF05003F9
:1022B00083F31188BFF36F8FBFF34F8FFEE70024C6
:1022C000F0E72046BDE8F08160010020643D002079
:1022D00064010020703D00206C3D0020683D00201E
:1022E00010B5044670B3184A50F8043C1268134203
:1022F00008D14FF0500383F31188BFF36F8FBFF302
:102300004F8FFEE750F8081C41B14FF0500383F3A4
:102310001188BFF36F8FBFF34F8FFEE723EA0203ED
:1023200040F8043CFFF738FC084A54F8043C1168B4
:10233000A4F108000B441360FFF722FFBDE8104032
:10234000FFF7C4BC10BD00BF643D0020683D002005
:1023500070470000034B0360034B0B608023136046
:10236000704700BF783F0020783D002037B5094C0A
:1023700001906568FEF706FB019B074AB0FBF2F08F
:10238000434301936368019A5B1B9342FAD303B002
:1023900030BD00BF001000E040420F000549064874
:1023A00001234FF40062C1E900230023CB60FEF754
:1023B0002FB900BFCC40002000000240044905486E
:1023C00000234FF40062C1E900238B60FEF720B9BF
:1023D000CC4000200000024010B50D4CFFF7DEFF9E
:1023E00000224FF400612046FEF7F2F944F25060FB
:1023F000FFF7BCFF204601224FF40061FEF7E8F929
:102400001420FFF7B3FFBDE81040FFF7D7BF00BFB0
:102410000000024038B52820FFF7A8FF4FF4006104
:102420000D48FEF7CFF9A8B95020FFF79FFF4FF4F2
:1024300000610948FEF7C6F9002814BF0124FF24F3
:10244000054D4FF400612846FEF7BCF90028F8D18D
:10245000204638BD0024F3E70000024070B5144E5A
:10246000002407254FF400611148FEF7ABF900285E
:10247000F8D02820FFF77AFF4FF400613046FEF7CE
:10248000A1F90123AB405BB264B270B924EA030442
:10249000E4B24FF400613046FEF794F90028F8D119
:1024A00015F1FF35DED2204670BD1C43F0E700BFBA
:1024B0000000024083B5544F544C554E0023236016
:1024C00023681D2BF8DCFFF787FFFFF7A3FF514BB5
:1024D000514D1870FFF7C2FF2870FFF7BFFF4F4B39
:1024E000DFF874811870FFF7B9FF4D4BDFF86C917E
:1024F0001870FFF7B3FF4B4B1870FFF7AFFF4A4B55
:1025000018802B780A25B3FBF5F205FB12313970E0
:1025100088F800204549226840F6B8308B54FFF710
:102520004BFC4FF400513046FEF74CF9002857D0D1
:102530003F4800F072FC08B33E4800F016FDE8B1D9
:10254000DFF81CA13A493B48524600F07DFBA8B198
:10255000384800F06BFBDAED007A3749FCEEE77A99
:10256000CDED017A9DF80430B3FBF5F205FB123591
:102570000D7032490A70226831498B5499F8001065
:10258000304B314A002939D02C490978595C5161C6
:10259000294A12789B5C2D4A736153692C4D2D4852
:1025A00083F02003536129464FF47A730122FEF72A
:1025B0003DFF2B78312B0AD1214926480A234B773E
:1025C0001E224FF47A73FEF7D7FE30232B70236858
:1025D0001E2B04BF002323602368013323606FE7B1
:1025E0004FF400513046FEF7EDF80028C6D199F8B7
:1025F000003083F0010389F80030BFE798F800103D
:10260000595C51613A78C5E73A400020CC3F002040
:1026100000080240D03F00203E400020CA40002079
:10262000C8400020644100203C4000204840002079
:10263000144000206C400020204100206840002011
:102640001C40002005000020000402400000024061
:10265000C940002088400020844000200400002061
:102660004440002030B5142495B02246002108A82B
:1026700000F026FF2246002102A800F021FF0025DD
:102680001C4B00951A6C42F080521A641B6C03F0CC
:1026900080530093009B184B01951A6842F4404206
:1026A0001A601B6803F4404301930122019B10232D
:1026B0000224CDE90A230821B42307A8CDE90F138A
:1026C0000794CDE90D45CDE911441394FEF7E6F9E1
:1026D000FEF784F80F23CDE902344FF4A0504FF4F5
:1026E0008053CDE90503052102A80495FEF7B2F851
:1026F00015B030BD003802400070004000B58DB00C
:1027000000F040FE654C664AFF2363615361FDF7AC
:10271000FFFE64484FF40072214600F0F5FC61486A
:1027200000F0F0FD18B160495E4800F003FE5E481D
:1027300000F073FB90B109225B495A4800F006FB98
:102740001E225949574800F0BFFB574955480A22F5
:1027500000F069FB5449534800F054FAFFF782FF38
:10276000142200210DEB020000F0AAFE00244F4BC2
:1027700001941A6B49484E4E42F004021A631A6BD8
:1027800002F004020192019A02941A6B42F0800254
:102790001A631A6B02F080020292029A03941A6B77
:1027A00042F001021A631A6B02F001020392039ACB
:1027B00004941A6B42F002021A631B6B03F00203CB
:1027C0000493224640F2FF21049BFEF701F82246C3
:1027D00020213848FDF7FCFF22467F213048FDF7D5
:1027E000F7FF354B2D4807944FF4005205A9CDE96A
:1027F00005230125FDF70CFF40F2FF2305A927481B
:10280000CDE90535CDE90744FDF702FF202305A9F1
:102810002848CDE90535CDE90744FDF7F9FE7F23CA
:1028200005A91F48CDE90535CDE90744234DFDF73E
:10283000EFFE2349AC60B323C5E9001328465923B2
:10284000EB60AC61CDE90544FEF7DEFB05A9284647
:10285000CDE90544FEF7F2FB1A484FF41653C0E9E0
:1028600000630C23184E0461C0E90534C0E902443A
:10287000C461FEF753FD2846FEF7AAFA0FCE05AD58
:102880000FC596E8070085E80700214605A8FEF772
:1028900018FF0E4B1860FEF70FFFFEE7000802401E
:1028A000000402406C400020144000200038024028
:1028B00000100140000002400000211024410020CF
:1028C0000014004088400020E83400081040002038
:1028D0000268034B9A4201D100F056B9704700BF1D
:1028E0000014004082B00E4B00220092596C41F45B
:1028F00080415964596C01F4804100910099019222
:10290000196C41F0805119641B6C03F080530193E2
:10291000019B0F216FF0010002B0FDF725BE00BF43
:102920000038024007B50F4B02689A4216D10022C8
:1029300003F509330192196C41F0200119641B6CF5
:1029400003F02003019311463720019BFDF70CFE95
:10295000372003B05DF804EBFDF73ABE03B05DF835
:1029600004FB00BF0014004010B514228AB00446D6
:1029700000210DEB020000F0A3FD2368304A9342D2
:102980002FD1304B002401945A6C42F010025A644B
:102990005A6C02F010020192019A02941A6B42F0F2
:1029A00001021A631B6B03F001030293029B4FF4B5
:1029B000C0600223CDE905034FF0010C0323CDE9EC
:1029C00007C305A9072320480993FDF721FE252009
:1029D00022460521FDF7C8FD2520FDF7F9FD0AB0C7
:1029E00010BD1A4A9342FAD1164B1748002403949B
:1029F0001A6C42F400321A641A6C02F40032039228
:102A0000039A04941A6B42F001021A631B6B03F0E1
:102A1000010304930C22049B0223CDE90523012129
:102A20000323CDE90713072305A90993FDF7F0FD5B
:102A3000262022460521FDF797FD2620CDE700BF81
:102A400000100140003802400000024000440040F5
:102A500030B5014689B000223620FDF785FD3620CD
:102A6000FDF7B6FD0025154B02951A6C144C42F08B
:102A700010021A641B6C03F01003029301A903A84F
:102A8000029BFDF7A5FFFDF783FF0E4B236040F28D
:102A9000E733E36040000C4BB0FBF3F001386060BB
:102AA00020462561A560FEF7AFFA20B92046FEF763
:102AB0008FF909B030BD0120FBE700BF00380240AC
:102AC000684100200010004040420F000148FEF71E
:102AD0004BBD00BF884000207047FEE7FEE7FEE7E1
:102AE000FEE770470148FEF787B900BF6841002044
:102AF0000148FEF781B900BF244100200F49D1F8F9
:102B0000883043F47003C1F888300D4B1A680020F8
:102B100042F001021A6098601A6822F0847222F46E
:102B200080321A60074A5A601A6822F480221A60BA
:102B3000D8604FF000638B60704700BF00ED00E08D
:102B400000380240103000240C4BDA6822F080720A
:102B5000DA60DA6842F08072DA60094B1A6822F0B3
:102B600001021A601A6842F001021A6000225A60DB
:102B70005A6800BF00BF5868801A7047F0ED00E047
:102B8000001000E070470000184AF8B513680133E0
:102B90001360174B1A6812B11A68013A1A60154E81
:102BA000002537463378ECB2A34202D8FFF7EAFF9C
:102BB000F8BDA40033195868B0B103789B0713D54A
:102BC00083680BB1013B836083686BB93C44D0E9F7
:102BD00003319847626853689360137813F00101DA
:102BE00004BF61F3410313700135DBE7EC3F0020C4
:102BF000F03F0020D43F0020014B1868704700BF11
:102C0000EC3F002038B50B78282B04460D460BD13D
:102C100000F08CFA2946204600F08AFB2046442129
:102C200000F0E8FA012038BD0020FCE710B50446AA
:102C300000F07CFA2046CC2100F0DCFA204644214A
:102C4000BDE8104000F0D6BAF0B50B78282B85B05F
:102C500007460C46154602D0002005B0F0BD00F036
:102C6000ABFA0028F8D0384600F060FA2146384622
:102C700000F05EFBBE21384600F0BCFA002401AE35
:102C8000384600F0C7FA30550134092CF8D1082134
:102C9000304600F05AFB9DF80C308342DCD19DF8A1
:102CA00005309DF8046046EA032636B2384600F047
:102CB0003DFAB4B2002EBCBF6442A4B24FEA141372
:102CC00003F0700244F3071343EA02039DF808205F
:102CD000C2F3411202F10902B4BF012100210B2A03
:102CE00023D00C2A28D00A2A1BBFC4F3C00207EE47
:102CF000902AC4F38102F8EEE77A0DBF07EE902A1E
:102D0000B6EE007A67EE877AFAEECF7A07EE103ADF
:102D1000B8EEC77A77EE277A19B19FED0B7A77EE86
:102D2000677AC5ED007A012097E7C4F3420207EE07
:102D3000902AFAEEEE7AE9E704F00F0207EE902A05
:102D4000FAEECE7AE2E700BF000000002DE9F8437A
:102D50000B78282B04460E4691465CD100F0E6F92C
:102D60003146204600F0E4FABE21204600F042FA47
:102D7000204600F04FFA204600F04CFA204600F0C2
:102D800049FA8046204600F045FA0746204600F002
:102D900041FAB9F1090F054626D100F09F052046FA
:102DA00000F0C4F93146204600F0C2FA4E21204618
:102DB00000F020FA4146204600F01CFA3946204631
:102DC00000F018FA2946204600F014FA204600F0D8
:102DD000ADF93146204600F0ABFA2046482100F01C
:102DE00009FA0120BDE8F883B9F10A0F04D100F017
:102DF000BF0545F02005D2E7B9F10B0F04D100F073
:102E0000DF0545F04005CAE7B9F10C0F04BF40F0FB
:102E10006005EDB2C3E70020E4E70078A0F12803E5
:102E20005842584170472DE9F0410B78282B044651
:102E30000E4647D16FF036059542B8BF154600F0F3
:102E400075F93146204600F073FABE21204600F0A5
:102E5000D1F9204600F0DEF9204600F0DBF92046EB
:102E600000F0D8F98046204600F0D4F9204600F062
:102E7000D1F90746204600F059F93146204600F0C6
:102E800057FA4E21204600F0B5F94146204600F0A1
:102E9000B1F97D2DA8BF7D25E9B2204600F0AAF941
:102EA0003946204600F0A6F9204600F03FF93146A9
:102EB000204600F03DFA2046482100F09BF9012011
:102EC000BDE8F0810020FBE72DE9F0410B78282BCD
:102ED00004460E4647D16FF036059542B8BF1546F9
:102EE00000F024F93146204600F022FABE212046A7
:102EF00000F080F9204600F08DF9204600F08AF9B4
:102F0000204600F087F9204600F084F980462046EC
:102F100000F080F90746204600F008F931462046C7
:102F200000F006FA4E21204600F064F97D2DA8BF7E
:102F30007D25E9B2204600F05DF94146204600F0CB
:102F400059F93946204600F055F9204600F0EEF8D0
:102F50003146204600F0ECF92046482100F04AF9BD
:102F60000120BDE8F0810020FBE700F025B930B575
:102F70000023032541FA03F2D20706D502685C005C
:102F800005FA04F422EA040202600133102BF1D1A5
:102F900030BDF0B500230325012641FA03F2D20724
:102FA00009D502685C0005FA04F722EA070206FA6E
:102FB00004F4224302600133102BEED1F0BD000077
:102FC000064A00F13F4000F57E00116BC0F38F23ED
:102FD0000120984008431063704700BF003802404A
:102FE0002DE9F04F85B000F13F459DF8384002943F
:102FF00005F57E059DF83C40DFF8A480039402F1BE
:10300000FF3E01930024C5F387254FF0030A5FFAC2
:103010008EFE41FA04F6F3073BD5012338F815601C
:10302000D0F80CC003FA04F949EA060628F815603E
:1030300004FA03F60AFA06F7029BFF4303FA06FBBB
:1030400007EA0C0C4CEA0B0CC0F80CC0D0F800C01E
:1030500002FA06FB0CEA070C4CEA0B0CBEF1010F5E
:10306000C0F800C015D8D0F804C0019B2CEA0909AB
:1030700003FA04FC1FFA8CFC49EA0C09C0F804901E
:10308000D0F808C0039B07EA0C0703FA06F637439B
:1030900087600134102CBCD105B0BDE8F08F00BFB3
:1030A000F43F00202DE9F047054616461F469DF8DF
:1030B00020809DF824900C4659B1FFF781FFCDE99F
:1030C00008893B46324621462846BDE8F047FFF7CF
:1030D00087BFBDE8F087000037B5094C01906568EF
:1030E000FDF750FC019B074AB0FBF2F0434301930C
:1030F0006368019A5B1B9342FAD303B030BD00BFF3
:10310000001000E040420F0073B50E46154604461D
:10311000FFF71AFD0122CDE900220023294630469F
:10312000FFF7C0FF2660A58002B070BD818810B592
:10313000044600680B048361FFF72BFF4FF4F07027
:10314000FFF7CAFFA1882068FFF711FF4620FFF7AD
:10315000C3FF2368A2881B691A4214BF01240024FC
:103160004FF4CD70FFF7B8FF204610BD838810B52F
:10317000044600681A04826191B11946FFF709FFFD
:103180000A20FFF7A9FF2068A188FFF7F0FE37208B
:10319000FFF7A2FFA1882068BDE81040FFF7E7BE57
:1031A0001946FFF7F6FE4120FFF796FF2068A18839
:1031B000FFF7DDFE0520EBE7818810B504460068C7
:1031C0000B048361FFF7E5FE0320FFF785FFA1886D
:1031D0002068FFF7CCFE0A20FFF77EFF2368A28855
:1031E0001B691A4214BF012400243220FFF774FF28
:1031F000204610BD70B506460D460924013C14F06A
:10320000FF0400D170BD05F001013046FFF7AEFFAD
:103210006D08F3E770B5064609250024013D15F059
:10322000FF0501D1204670BD3046FFF7C5FF640899
:1032300044EAC014E4B2F1E72DE9F843037A044606
:103240000D461BB9FFF772FF814620B10020E080D8
:103250002072BDE8F88329462046FFF7CBFF012600
:103260004F4635462046FFF7A7FF80462046FFF72A
:10327000A3FFB8F1010F0FD101282BD1402DE5D9C3
:1032800084F80690B9F1000F01D101232372637A0B
:10329000002BDBD00120DCE7E2198045537A0FD107
:1032A000A179A94210D9334214BF4FF001084FF061
:1032B0000008B8F1000F0DD1082D00D8E571A9461E
:1032C00023EA060353720BE00CBF4FF001084FF0E6
:1032D0000008EEE7E2194FF00108537A33435372C6
:1032E000414620467600FFF741FF16F0FF0604BF77
:1032F0000137FFB205F1010508BF0126072FEDB226
:10330000B0D9BBE70022C2800272F021FFF794BF60
:1033100070B50C4655210646FFF76CFF651E073455
:1033200015F8011F3046FFF765FFA542F8D170BDC3
:10333000FFF7EEBF00F109030139113013F8012B3B
:1033400001F8012F8342F9D1704730B501440023C1
:10335000884201D1184630BD10F8014B082283EA9B
:10336000040515F0010F4FEA530318BF83F08C03D7
:1033700002F1FF3218BFDBB212F0FF024FEA540431
:10338000EDD1E5E710B594B00023244A0093116C09
:1033900041F080511164126C02F080520092009A48
:1033A0001F4A0193116841F44041116012680A9369
:1033B00002F4404202244FF4800301920120019A5A
:1033C00011944FF48032CDE90D434FF0080C4FF4C7
:1033D000B473CDE90702CDE90FC307A80723CDE9F0
:1033E0001233FDF75BFB10B1012014B010BDFDF7E7
:1033F000F5F90028F8D10F2302934FF4A0514FF4B0
:103400008053CDE90340CDE9051302A80621FDF75D
:1034100021FA003018BF0120E7E700BF0038024062
:1034200000700040DFF834D0002103E00C4B5B5803
:10343000435004310B480C4B42189A42F6D30B4AC6
:1034400002E0002342F8043B094B9A42F9D3FFF70C
:1034500055FB00F011F8FFF751F97047000002200A
:103460004035000800000020140000201400002057
:10347000A8410020FEE7000070B50D4E0D4CA41BC6
:10348000A4100025A54209D10B4E0C4C00F020F8E9
:10349000A41BA4100025A54205D170BD56F8253007
:1034A00098470135EEE756F8253098470135F2E7A1
:1034B0003835000838350008383500083C35000834
:1034C00002440346934200D1704703F8011BF9E719
:1034D000F8B500BFF8BC08BC9E467047F8B500BF01
:0834E000F8BC08BC9E467047D1
:1034E80009350008B5240008FDFF000000000000B1
:1034F80080000000000000000000000049444C4526
:103508000064656661756C745461736B000000003B
:10351800000000000001020304060708090000007B
:08352800000102030400000091
:0835300010CDFF7F0100000037
:04353800F501000891
:04353C00D1010008B1
:10354000AAAAAAAA013F065B4F666D7D077F6700A6
:043550000024F4005F
:040000050800342596
:00000001FF
