:020000040800F2
:10000000000002205D310008D1270008D327000836
:10001000D5270008D7270008D927000800000000CE
:10002000000000000000000000000000911C00081B
:10003000DB27000800000000211D0008851D0008C6
:10004000AD310008AD310008AD310008AD31000818
:10005000AD310008AD310008AD310008AD31000808
:10006000AD310008AD310008AD310008AD310008F8
:10007000AD310008AD310008AD310008AD310008E8
:10008000AD310008AD310008AD310008AD310008D8
:10009000AD310008AD310008AD310008AD310008C8
:1000A000AD310008AD310008AD310008AD310008B8
:1000B000AD310008AD310008AD310008AD310008A8
:1000C000AD310008AD310008AD310008AD31000898
:1000D000AD310008AD310008AD310008AD31000888
:1000E000AD310008AD310008AD310008AD31000878
:1000F000AD310008AD310008AD310008AD31000868
:10010000AD310008AD310008AD310008AD31000857
:10011000AD310008AD310008DD270008E9270008EF
:10012000AD310008AD310008AD310008AD31000837
:10013000AD3100080000000000000000AD310008F3
:10014000AD310008AD310008AD310008AD31000817
:10015000AD310008AD310008AD310008AD31000807
:10016000AD310008AD310008AD310008AD310008F7
:10017000AD310008AD310008AD31000800000000CD
:1001800000000000AD310008000000000000000089
:10019000AD3100080000000000000000AD31000893
:1001A000000000000000000000000000AD31000869
:1001B000AD310008AD310008AD310008AD310008A7
:0401C000AD31000855
:1001D00010B5054C237833B9044B13B10448AFF381
:1001E00000800123237010BD780000200000000073
:1001F000243A000808B5034B1BB103490348AFF389
:10020000008008BD000000007C000020243A0008A7
:10021000034613F8012B002AFBD1181A0138704746
:1002200001F0FF01102A2BDB10F0070F08D010F8A7
:10023000013B013A8B422DD010F0070F42B3F6D1AB
:10024000F0B441EA012141EA014122F007047FF0C4
:1002500000070023F0E80256083C85EA010586EA1B
:10026000010685FA47F5A3FA87F586FA47F6A5FA57
:1002700087F68EB9EED1F0BC01F0FF0102F0070263
:1002800032B110F8013B013A83EA010313B1F8D10E
:100290000020704701387047002D06BF35460338EF
:1002A000073815F0010F07D1013015F4807F02BF28
:1002B000013015F4C03F0130F0BC0138704700BF79
:1002C00053B94AB9002908BF00281CBF4FF0FF31BD
:1002D0004FF0FF3000F072B9ADF1080C6DE904CEBB
:1002E00000F006F8DDF804E0DDE9022304B0704711
:1002F0002DE9F047089E04468846002B4BD18A42E0
:10030000154667D9B2FA82F24AB1C2F1200701FA62
:1003100002F320FA07F7954047EA030894404FEAB2
:10032000154E230CB8FBFEF71FFA85FC0EFB178851
:1003300043EA084307FB0CF1994209D9EB1807F18E
:10034000FF3080F01B81994240F21881023F2B441C
:100350005B1AA4B2B3FBFEF00EFB103344EA034475
:1003600000FB0CFCA44509D92C1900F1FF3380F0E7
:100370000781A44540F2048102382C4440EA07403A
:10038000A4EB0C0400271EB1D4400023C6E90043AF
:100390003946BDE8F0878B4209D9002E00F0EB808A
:1003A0000027C6E9000138463946BDE8F087B3FAB0
:1003B00083F7002F47D18B4202D3824200F2FA80AA
:1003C000841A61EB030301209846002EE0D0C6E9B1
:1003D0000048DDE702B9FFDEB2FA82F2002A40F0FF
:1003E0008F80491B4FEA154E1FFA85F80127B1FB94
:1003F000FEFC230C0EFB1C1143EA014308FB0CF12D
:10040000994207D9EB180CF1FF3002D2994200F261
:10041000CD808446591AA3B2B1FBFEF00EFB101436
:1004200043EA044408FB00F8A04507D92C1900F161
:10043000FF3302D2A04500F2B6801846A4EB0804B0
:1004400040EA0C409FE7C7F1200CBB4022FA0CFEAB
:100450004EEA030E01FA07F420FA0CF521FA0CF328
:100460004FEA1E482543B3FBF8F92C0C08FB19335F
:100470001FFA8EFA44EA034309FB0AF49C4202FA8B
:1004800007F200FA07F10BD91EEB030309F1FF3065
:1004900080F087809C4240F28480A9F10209734475
:1004A0001B1BADB2B3FBF8F008FB103345EA034465
:1004B00000FB0AFAA24508D91EEB040400F1FF3341
:1004C0006BD2A24569D90238744440EA0940A0FBC6
:1004D0000289A4EB0A044C45C2464B4654D351D082
:1004E000002E69D0B1EB0A0564EB030404FA0CFC9E
:1004F000FD40FC404CEA0505C6E90054002747E7EB
:10050000C2F1200320FA03F7954001FA02F021FA24
:1005100003F34FEA154E3843010CB3FBFEF71FFA05
:1005200085F80EFB173341EA034107FB08F38B42C2
:1005300004FA02F407D9691807F1FF3C2FD28B4265
:100540002DD9023F2944CB1A81B2B3FBFEF00EFB3A
:10055000103341EA034100FB08F38B4207D96918C5
:1005600000F1FF3C17D28B4215D902382944C91A31
:1005700040EA07473BE73746304609E70746E7E6E4
:100580001846FBE64145ABD2B8EB020A69EB0E0216
:1005900001381346A4E76046E9E7184695E7674641
:1005A000D1E781467CE702382C4447E7ACF1020CE6
:1005B0002B442FE7384608E73746E9E6704700BF87
:1005C00008B50B4B1A6842F400721A601A6842F4BC
:1005D00080621A601A6842F480721A60032000F088
:1005E00009F8002002F0B6F802F03AF8002008BD41
:1005F000003C0240074AD36823F4E0631B041B0C51
:1006000043F0BF63000243F4003300F4E0600343AF
:10061000D360704700ED00E0174B30B5DC68C4F3E1
:100620000224C4F10703251D042B28BF0423062D33
:100630004FF0010505FA03F303F1FF338CBF033CD0
:1006400000241940A14005FA04F4013C224000288E
:1006500042EA01024FEA0212ADBF00F1604000F031
:100660000F00064B00F56140B5BFD2B2D2B21A54AA
:1006700080F8002330BD00BF00ED00E014ED00E085
:10068000002808DB4209012300F01F0003FA00F0F4
:10069000014B43F82200704700E100E02DE9F04FE4
:1006A00085B00B68DFF8A081654ADFF8A09101935F
:1006B00000234FF0010E019C0EFA03FE0EEA040621
:1006C000B64540F0AA804C6824F01007022F16D1DE
:1006D0004FEAD30A00EB8A0A03F0070BDAF820503E
:1006E0004FEA8B0B4FF00F0C0CFA0BFC25EA0C0CAD
:1006F0000D6905FA0BF545EA0C05CAF820504FEADA
:10070000430A0325D0F800B005FA0AF5ED4304F0DA
:10071000030C0BEA050B0CFA0AFC013F4CEA0B0C2C
:10072000012FC0F800C011D8876807EA050BCF6811
:1007300007FA0AFC4CEA0B078760476827EA0E0EA7
:10074000C4F300179F4047EA0E074760C7683D4063
:100750008F6807FA0AF73D43C560E5005DD54FF0A5
:10076000000BCDF80CB0D8F84470364D47F48047F4
:10077000C8F84470D8F8447007F480470397039F83
:1007800023F0030707F1804707F59C3703F0030CBC
:10079000D7F808A04FEA8C0C4FF00F0E0EFA0CFEA3
:1007A000A8422AEA0E0E3FD005F58065A8423DD04A
:1007B00005F58065A8423BD005F58065A84239D093
:1007C00005F58065A84237D0484537D005F5006566
:1007D000A84214BF0725062505FA0CF545EA0E05C3
:1007E000BD601568F74314F4803F0CBF3D403543AE
:1007F0001560556814F4003F0CBF3D40354355600B
:10080000956814F4801F0CBF3D4035439560D56852
:10081000A40254BF3D403543D5600133102B7FF413
:1008200048AF05B0BDE8F08F5D46D5E70125D3E7B9
:100830000225D1E70325CFE70425CDE70525CBE742
:10084000003C014000000240003802400014024019
:100850000369194214BF0120002070470AB1816169
:1008600070470904FBE7000037B500230193184BDC
:10087000184C1A6C42F080521A641B6C03F08053BF
:100880000193019B144B01221A6002F04BF80546BC
:100890006368DA030BD5114B0E4C01221A6002F08B
:1008A00041F8054663689B030AD5002006E002F084
:1008B00039F8401BB0F57A7FEAD9032003B030BD88
:1008C00002F030F8401BB0F57A7FEBD9F5E700BFB6
:1008D000003802400070004040000E4244000E42CA
:1008E0002DE9F0410D46044610B90120BDE8F08124
:1008F000444B1A6802F00F028A4228D321688F07FE
:100900002DD4C80740D43F4B1A6802F00F0295421D
:1009100066D3226851076CD4130707D53A4A216978
:10092000936823F4604343EAC103936000F0B6F890
:10093000354B364A9B68C3F30313D35CD840344B22
:100940001860002001F006FF0020BDE8F081CAB267
:100950001A701B6803F00F039942C6D1CEE72A4BE9
:1009600011F0040F1EBF9A6842F4E0529A600E071D
:1009700042BF9A6842F460429A609A68A06822F086
:10098000F00202439A60BCE762681F4B012A1DD146
:100990001B6813F4003FA8D01B4EB36823F0030379
:1009A0001343B36001F0BEFF41F288380746B368D5
:1009B000626803F00C03B3EB820FA4D001F0B2FF26
:1009C000C01B4045F3D90320BDE8F081911E0129E9
:1009D0001B6802D813F0007FDDE713F0020FDAE79F
:1009E000EAB21A701B6803F00F039D427FF47DAFDB
:1009F0008FE70549E0688B6823F4E05303438B607D
:100A00008AE700BF003C024000380240743A000808
:100A100010000020014B1868704700BF1000002034
:100A2000044B054A9B68C3F38223D35C034A1068D6
:100A3000D840704700380240843A00081000002077
:100A4000044B054A9B68C3F34233D35C034A1068E6
:100A5000D840704700380240843A00081000002057
:100A60000F2303600B4B9A6802F0030242609A68FE
:100A700002F0F00282609A6802F4E052C2609B6861
:100A8000DB0803F4E0530361034B1B6803F00F031F
:100A90000B60704700380240003C0240204908B516
:100AA0008B6803F00C03082B07D00C2B20D01D4AB9
:100AB0001D48042B18BF104608BD4A684B6849689A
:100AC00013F4800314BF18481648C1F3881118BFE7
:100AD000002302F03F02A1FB0001FFF7F1FB104BE6
:100AE0005B68C3F3014301335B00B0FBF3F008BD67
:100AF0004A684B68496813F4800314BF0A480948E0
:100B0000C1F3881118BF002302F03F02A1FB0001CE
:100B1000FFF7D6FB024B5B68C3F30273E5E700BF48
:100B2000003802400024F40000127A0003682DE926
:100B3000F341DF07044610D423689E0767D4236877
:100B40001A0700F1B28023685B0700F1D080A26928
:100B5000002A40F0398100201EE0974B9A6802F08D
:100B60000C02042A10D09A6802F00C02082A02D162
:100B70005B685D0208D4904B9A6802F00C020C2A64
:100B80000DD15A6850020AD58B4B1B689903D3D5F7
:100B90006368002BD0D1012002B0BDE8F08162680B
:100BA000B2F5803F11D11A6842F480321A6001F028
:100BB000B9FE814D06462B689A03BDD401F0B2FE02
:100BC000801B6428F7D90320E6E77B4DB2F5A02F00
:100BD0002B6807D143F480232B602B6843F48033C8
:100BE0002B60E4E723F480332B602B6823F480230D
:100BF0002B60002ADBD101F095FE06462B689B0393
:100C00009AD501F08FFE801B6428F7D9DBE76A4B89
:100C10009A6812F00C0F10D09A6802F00C02082AA1
:100C200002D15B685F0208D5634A936803F00C0346
:100C30000C2B11D153685E020ED45F4B1A689507D6
:100C400002D5E268012AA6D11A68216922F0F802C9
:100C500042EAC1021A6072E7E268584BB2B101225F
:100C60001A6001F05FFE544D06462B68980707D5C1
:100C70002B68226923F0F80343EAC2032B605EE786
:100C800001F050FE801B0228EFD99CE71A6001F0AA
:100C900049FE494D06462B6899077FF550AF01F094
:100CA00041FE801B0228F6D98DE76269444B7AB178
:100CB00001221A6001F036FE3F4D06466B6F9F071A
:100CC0003FF541AF01F02EFE801B0228F6D97AE7EE
:100CD0001A6001F027FE384D06466B6F98077FF5C6
:100CE00032AF01F01FFE801B0228F6D96BE7324BB2
:100CF0001A6C12F0805228D101921A6C42F0805284
:100D00001A641B6C03F080530193019B01262D4D47
:100D10002B68D9051BD5A368274D012B27D12B6F35
:100D200043F001032B6701F0FDFD234D074641F21F
:100D300088382B6F9B0739D5002E3FF408AF1E4A29
:100D4000136C23F08053136401E70026DFE72B6860
:100D500043F480732B6001F0E5FD07462B68DA054C
:100D6000D9D401F0DFFDC01B0228F7D92BE7052BF2
:100D700004D12B6F43F004032B67D0E72A6F22F0D6
:100D800001022A672A6F22F004022A67002BCAD1C7
:100D900001F0C8FD41F2883807462B6F9807CBD584
:100DA00001F0C0FDC01B4045F7D90CE701F0BAFDCA
:100DB000C01B4045BDD906E700380240000047424D
:100DC000800E474200700040234DAB6803F00C03D7
:100DD000082B3FF4E0AE214E0023022A33602DD1D0
:100DE00001F0A0FD07462B68990121D4226AE3692E
:100DF0001343626A43EA8213E26A43EA0263226BA4
:100E000043EA0273A26A144C5208013A43EA0243CD
:100E10006B600123336001F085FD054623689A016C
:100E20003FF599AE01F07EFD401B0228F6D9CAE6D7
:100E300001F078FDC01B0228D5D9C4E601F072FD8F
:100E400004462B689B017FF586AE01F06BFD001B0D
:100E50000228F6D9B7E600BF0038024060004742DA
:100E60000368DA6842F00102DA609A6802F0070269
:100E7000062A1EBF1A6842F001021A60002070475D
:100E8000704770477047704703681A69910710B53B
:100E900004460ED5DA6892070BD56FF002021A618C
:100EA0009B6901229B07027777D0FFF7EAFF0023B7
:100EB000237723681A69500710D5DA6851070DD5D2
:100EC0006FF004021A619B69022213F4407F2277BB
:100ED000204668D0FFF7D5FF0023237723681A69DF
:100EE00012070FD5DA6810070CD56FF008021A61E7
:100EF000DB6904229907227720465AD0FFF7C1FF09
:100F00000023237723681A69D20610D5DA68D00641
:100F10000DD56FF010021A61DB69082213F4407FCF
:100F2000227720464BD0FFF7ACFF002323772368BE
:100F30001A69D10708D5DA68D20705D56FF0010222
:100F40001A61204601F06CFB23681A69100608D567
:100F5000DA68110605D56FF080021A61204600F0AC
:100F6000D4F823681A69520608D5DA68500605D500
:100F70006FF040021A612046FFF785FF23681A6967
:100F8000910622D5DA6892061FD56FF0200220461E
:100F90001A61BDE8104000F0B7B8FFF771FF2046B6
:100FA000FFF770FF83E7FFF76BFF2046FFF76AFF4D
:100FB00092E7FFF765FF2046FFF764FFA0E7FFF722
:100FC0005FFF2046FFF75EFFAFE710BD304A0368C2
:100FD000904212D0B0F1804F0FD0A2F57C429042E7
:100FE0000BD002F58062904207D002F580629042F9
:100FF00003D002F57842904219D14A6823F0700379
:101000001343234A904229D0B0F1804F26D0A2F555
:101010007C42904222D002F5806290421ED002F5BE
:10102000806290421AD002F57842904216D0194A56
:10103000904213D002F5806290420FD002F5806298
:1010400090420BD0A2F59832904207D002F5806210
:10105000904203D002F58062904203D1CA6823F423
:10106000407313434A6923F08003134303608B6882
:10107000C3620B688362064B984203D003F580631A
:10108000984201D10B69036301234361704700BF9C
:10109000000001400040014010B50446A0B190F8A6
:1010A0003D3003F0FF021BB980F83C2001F0F8FA54
:1010B000022384F83D302068211DFFF787FF0123BC
:1010C00084F83D30002010BD012010BD90F83C3068
:1010D000012B30B54FF0020314D0046880F83D3086
:1010E0006268A3680D68496822F0700223F08003EB
:1010F0000B432A436260A360012380F83D30002344
:1011000080F83C30184630BD704770472DE9F047F5
:101110000668C2683369C16923F4405313433361DD
:10112000044683680069F2680343606922F416424A
:10113000034322F00C020B431343F3607369A2696B
:1011400023F440731343B1F5004F73617A4B7CD1A4
:101150009E4203D003F580639E4244D1FFF770FCAA
:10116000192505FB00F360684FF064094000B3FBEC
:10117000F0F3B3FBF9F34FEA0318FFF761FC636880
:1011800068435B00B0FBF3F7FFF75AFC6368684302
:101190005B00B0FBF3F3B3FBF9F309FB1373DB0064
:1011A0003233B3FBF9F35B0003F4F877FFF748FC45
:1011B000626868435200B0FBF2FAFFF741FC6368D3
:1011C00068435B00B0FBF3F3B3FBF9F309FB13A334
:1011D000DB003233B3FBF9F303F0070343443B4432
:1011E000B360BDE8F087FFF71BFC192505FB00F392
:1011F00060684FF064094000B3FBF0F3B3FBF9F310
:101200004FEA0318FFF70CFC636868435B00B0FB10
:10121000F3F7FFF705FC636868435B00B0FBF3F38B
:10122000B3FBF9F309FB1373DB003233B3FBF9F3C0
:101230005B0003F4F877FFF7F3FB62686843520042
:10124000B0FBF2FAFFF7ECFBB9E79E4202D03B4B52
:101250009E4240D1FFF7F4FB676819254FF06409FF
:1012600005FB00F3BF00B3FBF7F3B3FBF9F31F017A
:10127000FFF7E6FB636868439B00B0FBF3F8FFF7FA
:10128000DFFB636868439B00B0FBF3F3B3FBF9F348
:1012900009FB13831B013233B3FBF9F303F0F008AE
:1012A000FFF7CEFB626868439200B0FBF2FAFFF7EB
:1012B000C7FB636868439B00B0FBF3F3B3FBF9F330
:1012C00009FB13A31B013233B3FBF9F303F00F0344
:1012D00043EA080383E7FFF7A3FB676819254FF08C
:1012E000640905FB00F3BF00B3FBF7F3B3FBF9F3AD
:1012F0001F01FFF795FB636868439B00B0FBF3F8A1
:10130000FFF78EFB636868439B00B0FBF3F3B3FB0E
:10131000F9F309FB13831B013233B3FBF9F303F039
:10132000F008FFF77DFB626868439200B0FBF2FAB9
:10133000FFF776FBBDE700BF00100140001401403D
:1013400010B5044640B390F8393003F0FF021BB9E2
:1013500080F8382001F0C6F92268242384F8393057
:10136000D36823F40053D3602046FFF7CFFE2368F1
:101370001A6922F490421A615A6922F02A025A61CB
:10138000DA6842F40052DA6000202023E06384F837
:10139000393084F83A3010BD012010BD90F8393052
:1013A000202B18D1A9B1A2B190F83830012B12D05E
:1013B000C2840162828400230168C363212280F811
:1013C0003920CA6880F8383042F08002CA60184676
:1013D0007047012070470220704790F83A30202B68
:1013E00020D1E9B1E2B190F83830012B1AD0C28592
:1013F000828500232222C36380F83A20026881623A
:10140000D16880F8383041F48071D160516941F081
:1014100001015161D16841F02001D1601846704747
:10142000012070470220704708B500F035FA00200F
:1014300008BD70B5054646692A694068B5F9084097
:101440000B4686B0296876B1AD6965B1842C14BFAE
:101450000334002402958DE8500000F0B9F905909E
:10146000059806B070BD842C14BF0334002405AD6C
:1014700092B28DE8300000F0E2F90128F0D00020AF
:10148000EFE700F1080343604FF0FF32C3600361F0
:101490000023826003607047002303617047436844
:1014A0004B609A688A609A68516099600368086125
:1014B0000133036070470A68531C30B50AD10369D1
:1014C0005A684A6091608B60596003680861013313
:1014D000036030BD00F108035C682568AA42EFD3C1
:1014E0002346F9E74168826803698A60826851602F
:1014F0005968884208BF5A60002202611A68013A9E
:101500001A601868704700002DE9F041064600F0A7
:10151000D1FB2D4B2D4C1A682D4F01321A602568D6
:10152000002D45D126601B68012B1CD1781914357C
:10153000FFF7A7FF8C2DF9D1DFF8C080254D40467D
:10154000FFF79FFF2846FFF79CFF2348FFF799FF0F
:101550002248FFF796FF2248FFF793FF214BC3F87D
:101560000080214B1D60214A21491368086801331E
:101570001360F26A01239340034314200B6000FBC5
:101580000270311DFFF78BFF00F0B6FB194B1B6893
:1015900063B12368DA6AF36A9A4207D2164B4FF0B6
:1015A00080521A60BFF34F8FBFF36F8FBDE8F08199
:1015B000104B1B68002BD6D12368DA6AF36A9A4273
:1015C00098BF2660CFE700BF2C01002094000020C8
:1015D000A00000205801002074010020A00100207C
:1015E0008C010020980000209C0000203C0100207D
:1015F000400100208801002004ED00E044010020AB
:10160000064A13681968064B19B94FF0FF321A6081
:1016100070471268D268D2685268F8E798000020D4
:101620006C0100202DE9F0470A9CDDF82480266B30
:1016300002F18042013A06EB82069A4681464B1E31
:1016400026F0070604F134020F31587802F8010B36
:1016500013F8010F08B18B42F7D1089D062D28BF62
:1016600006250027E5626564201D84F84370A764A1
:10167000FFF712FFC5F1070504F11800FFF70CFF93
:10168000E7642461A561646284F85070524649465B
:10169000304600F0E5FA2060B8F1000F01D0C8F83C
:1016A0000040BDE8F08710B590F8513004463BB9D2
:1016B000006B00F0CFFC2046BDE8104000F0CABC33
:1016C000012BF9D0022B08D04FF0500383F311887F
:1016D000BFF36F8FBFF34F8FFEE710BD80B5144E81
:1016E000144F154C154D23686BB9154B1B68012B16
:1016F00006D94FF080533B60BFF34F8FBFF36F8F1E
:1017000000F0E0FCEDE700F0D5FAF368D3F80C80C8
:1017100008F10400FFF7E6FE2B68013B2B6023680D
:10172000013B236000F0E8FA4046FFF7BCFFDAE730
:10173000A001002004ED00E0300100202C01002079
:10174000A0000020F8B51B4B1B4E1D6804463068F6
:1017500004300F46FFF7C6FE334640B93168174ED6
:10176000C96A32680120884022EA00023260621CA5
:1017700007D137B1196812480431BDE8F840FFF7C6
:101780008EBE2C441A68A542546007D90D4A1068D1
:101790001968BDE8F8400431FFF78DBE0A4A1068A9
:1017A00019680431FFF787FE084B1A68944238BF66
:1017B0001C60F8BDB401002094000020400100200E
:1017C0008C0100209C000020980000206C0100206B
:1017D00070B586B00B9D0C9C45B94FF0500383F358
:1017E0001188BFF36F8FBFF34F8FFEE744B94FF0FF
:1017F000500383F31188BFF36F8FBFF34F8FFEE762
:1018000054260496049E542E08D04FF0500383F3C0
:101810001188BFF36F8FBFF34F8FFEE7256302255B
:1018200084F8515005AD01950A9D02940095FFF78B
:10183000F9FE2046FFF768FE059806B070BD2DE959
:10184000F043074685B0900088461646994600F05A
:1018500073FB0546E8B1542000F06EFB0446A8B1C6
:10186000002380F851300D9B056301930C9B02907F
:10187000009332464B4641463846FFF7D3FE20469A
:10188000FFF742FE012005B0BDE8F083284600F0D6
:10189000E1FB4FF0FF30F6E710B588B0002407AA4F
:1018A00006A905A80594069400F00EFC059B02937A
:1018B000069B019300942346079A0D490D48FFF7B4
:1018C00087FF90B14FF0500383F31188BFF36F8F00
:1018D000BFF34F8F084B4FF0FF321A60074B0122C6
:1018E0001A60074B1C6000F07DFA08B010BD00BF05
:1018F000583A0008DD1600086C010020880100201D
:10190000B4010020024A136801331360704700BF1E
:10191000380100202DE9F84F3C4B1B68002B53D1B8
:101920003B4B1C6801341C60BCB93A4B1A68126806
:1019300042B14FF0500383F31188BFF36F8FBFF3B1
:101940004F8FFEE7344A1968106818601160334AF7
:10195000136801331360FFF753FE314D314F2B688D
:101960009C424FF0000B3ED3DFF8A880DFF8C49014
:10197000D8F80020126872BB4FF0FF322A6032E0C4
:1019800006F1040A5046FFF7ADFDB16A19B106F140
:101990001800FFF7A7FDF06AD9F80030012202FA1B
:1019A00000F11943204BC9F800104FF0140E5146B6
:1019B0000EFB0030FFF773FD3868F16AC26A91428E
:1019C00028BF4FF0010BD3E7184A136801331360A7
:1019D0004FF0000B11E0D8F80020D268D66871688B
:1019E0008C42CDD229603A680F4BD16A14224A4307
:1019F0009A58022A28BF4FF0010B0D4A1268002A9C
:101A000018BF4FF0010B5846BDE8F88F3801002091
:101A1000B4010020980000209C00002070010020EC
:101A20006C01002094000020A00000203401002060
:101A3000B8010020400100202DE9F843314C236813
:101A400043B94FF0500383F31188BFF36F8FBFF397
:101A50004F8FFEE700F02EF92368013B23602468D6
:101A60002CB1002400F048F92046BDE8F883264B4D
:101A70001B68002BF5D0DFF8A890244FDFF8A48076
:101A8000D9F80030E3B90CB1FFF7BAFD204D2C684E
:101A900044B1204E0127FFF73DFF00B13760013C04
:101AA000F9D12C601B4B1B68002BDAD01A4B4FF07E
:101AB00080521A60BFF34F8FBFF36F8F0124D1E7BD
:101AC000D9F80C30DC68261D04F11800FFF70AFD78
:101AD0003046FFF707FDE26A3968012505FA02F38F
:101AE00014200B4300FB028031463B60FFF7D7FC1C
:101AF0000A4BE26A1B68DB6A9A4224BF054B1D60F1
:101B0000BEE700BF380100202C010020400100206A
:101B100034010020B801002004ED00E09400002012
:101B200074010020A000002008B540B90E4B4FF012
:101B300080521A60BFF34F8FBFF36F8F08BD0B4BFE
:101B4000196841B14FF0500383F31188BFF36F8FD1
:101B5000BFF34F8FFEE7FFF7D5FEFFF7F3FDFFF76B
:101B60006BFF0028E2D008BD04ED00E03801002042
:101B7000174B1A68174B10B512B101221A6010BD2D
:101B80001A60154B1B68B3FA83F3DBB2C3F11F0372
:101B9000142212495A4388188C5844B94FF0500304
:101BA00083F31188BFF36F8FBFF34F8FFEE7446855
:101BB0000832646844600A44944204BF6268426028
:101BC000142202FB03135B68DA68054BD6E700BFFB
:101BD00038010020B801002040010020A0000020B2
:101BE0009400002082B0002301930D4B1B68013349
:101BF00008D04FF0500383F31188BFF36F8FBFF30A
:101C00004F8FFEE74FF0500383F31188BFF36F8FC0
:101C1000BFF34F8F019B002BFCD002B0704700BF79
:101C20000000002008480068006880F308884FF032
:101C3000000080F3148862B661B6BFF34F8FBFF324
:101C40006F8F00DF00BF000008ED00E0DFF80C0040
:101C5000016841F4700101607047000088ED00E008
:101C60004FF0807340F8043C074B40F80C3C21F0E7
:101C700001016FF0020340F8081C40F8202C40F8E6
:101C8000243C4438704700BFE51B000800000000FA
:101C9000074B19680868B0E8F04F80F30988BFF374
:101CA0006F8F4FF0000080F311887047AFF3008012
:101CB000940000204FF0500383F31188BFF36F8F1F
:101CC000BFF34F8F0A4A13680133012B13600DD104
:101CD000084B1B6813F0FF0F08D04FF0500383F33D
:101CE0001188BFF36F8FBFF34F8FFEE7704700BFC0
:101CF0000000002004ED00E0084A136843B94FF0EB
:101D0000500383F31188BFF36F8FBFF34F8FFEE74C
:101D1000013B13600BB983F311887047000000206A
:101D2000EFF30980BFF36F8F154B1A681EF0100F89
:101D300008BF20ED108A20E9F04F10602DE909005E
:101D40004FF0500080F31188BFF34F8FBFF36F8FB8
:101D5000FFF70EFF4FF0000080F3118809BC1968EF
:101D60000868B0E8F04F1EF0100F08BFB0EC108A02
:101D700080F30988BFF36F8F704700BFAFF3008017
:101D80009400002008B54FF0500383F31188BFF38F
:101D90006F8FBFF34F8FFFF7BDFD18B1034B4FF0AF
:101DA00080521A60002383F3118808BD04ED00E01F
:101DB000084A0949002313600B60084B4FF47A71FD
:101DC0001B68B3FBF1F30649013B0B60072313606B
:101DD000704700BF10E000E018E000E010000020B5
:101DE00014E000E0394B3A4A13B51968914208D122
:101DF0004FF0500383F31188BFF36F8FBFF34F8F02
:101E0000FEE71A68334B9A4208D14FF0500383F330
:101E10001188BFF36F8FBFF34F8FFEE72E4B1A78F9
:101E2000D2B20192FF221A701B782C4ADBB28DF8D5
:101E300003309DF8033003F050031370284B072242
:101E40001A6000219DF80300000602F1FF340DD452
:101E500001B11A601A68032A11D04FF0500383F3BE
:101E60001188BFF36F8FBFF34F8FFEE79DF80320FC
:101E70005200D2B28DF8032001212246E2E712027D
:101E800002F4E0621A60019B134ADBB21370154B37
:101E90001A6842F470021A601A6842F070421A60BE
:101EA000FFF786FF104B00241C60FFF7CFFE0F4AA0
:101EB000136843F040431360FFF7B4FEFFF758FE8A
:101EC000FFF790FE204602B010BD00BF00ED00E01D
:101ED00071C20F4170C20F4100E400E0BC0100205C
:101EE000C001002020ED00E00000002034EF00E001
:101EF00010B50F4B1A68824218D35C6819198842D2
:101F000001BF4168184609195960446801198A429D
:101F100007D1084909688A421FBF51681268091928
:101F200041609842026018BF186010BD1346E1E797
:101F3000D43D0020C40100202DE9F0410446FFF704
:101F4000E1FC3E493E4D0B680BBB3E4A56071FBFA6
:101F5000D01D20F0070002F570531B1A14BF024673
:101F60004FF470531344083B23F00703364E0B60C5
:101F700000207060326058601860981A1360334B0C
:101F800050601860324B18604FF000432B602F6890
:101F9000274216D1002C41D004F1080358071CBF7A
:101FA00023F00703083363B1294A1668B342904609
:101FB00007D8254A15686868834204D809688D42A5
:101FC00007D100242AE02C68002CF7D02A462546A9
:101FD000F1E7296814681160C21A102A0FD9E818AD
:101FE000410708D04FF0500383F31188BFF36F8F80
:101FF000BFF34F8FFEE742606B60FFF779FF134935
:102000006B680868F61A1F4386424FF00003C8F851
:10201000006038BF0E6008346F602B60FFF70CFD66
:10202000630708D04FF0500383F31188BFF36F8F1D
:10203000BFF34F8FFEE72046BDE8F081C4010020CA
:10204000C83D0020C8010020D43D0020D03D002024
:10205000CC3D002010B5044670B3184A50F8043C3B
:102060001268134208D14FF0500383F31188BFF375
:102070006F8FBFF34F8FFEE750F8081C41B14FF050
:10208000500383F31188BFF36F8FBFF34F8FFEE7C9
:1020900023EA020340F8043CFFF734FC084A54F8F2
:1020A000043C1168A4F108000B441360FFF720FF03
:1020B000BDE81040FFF7C0BC10BD00BFC83D002008
:1020C000CC3D002070470000034B0360034B0B60C6
:1020D00080231360704700BFDC3F0020DC3D002000
:1020E00037B5094C01906568FEF794FC019B074ADF
:1020F000B0FBF2F0434301936368019A5B1B934288
:10210000FAD303B030BD00BF001000E040420F0022
:102110000549064801234FF40062C1E9002300236A
:10212000CB60FEF7BBBA00BFA44100200000024014
:102130000449054800234FF40062C1E900238B6085
:10214000FEF7ACBAA44100200000024010B50D4CCF
:10215000FFF7DEFF00224FF400612046FEF77EFB12
:1021600044F25060FFF7BCFF204601224FF40061AB
:10217000FEF774FB1420FFF7B3FFBDE81040FFF734
:10218000D7BF00BF0000024038B52820FFF7A8FFE6
:102190004FF400610D48FEF75BFBA8B95020FFF734
:1021A0009FFF4FF400610948FEF752FB002814BF5F
:1021B0000124FF24054D4FF400612846FEF748FB3B
:1021C0000028F8D1204638BD0024F3E70000024083
:1021D00070B5144E002407254FF400611148FEF736
:1021E00037FB0028F8D02820FFF77AFF4FF4006172
:1021F0003046FEF72DFB0123AB405BB264B270B9F1
:1022000024EA0304E4B24FF400613046FEF720FBF9
:102210000028F8D115F1FF35DED2204670BD1C43F1
:10222000F0E700BF0000024083B5494F494C4A4ED9
:102230000023236023681D2BF8DCFFF787FFFFF7DF
:10224000A3FF464B464D1870FFF7C2FF2870FFF7FB
:10225000BFFF444BDFF840811870FFF7B9FF424BD6
:10226000DFF838911870FFF7B3FF404B1870FFF795
:10227000AFFF3F4B18802B780A25B3FBF5F205FB27
:102280001231397088F800203A49226840F6B83097
:102290008B54FFF749FC4FF400513046FEF7D8FA53
:1022A000002840D0344800F04FFC08B3334800F019
:1022B000F5FCE8B1DFF8E8A02F493048524600F0BD
:1022C00059FBA8B12D4800F047FBDAED007A2C4904
:1022D000FCEEE77ACDED017A9DF80430B3FBF5F220
:1022E00005FB12350D7027490A70226826498B5468
:1022F00099F80010254B264A19B322490978595CF0
:1023000051611F4A12789B5C224A7361536983F0C2
:102310002003536123681D2B04BF0023236023681F
:102320000133236086E74FF400513046FEF790FA00
:102330000028DDD199F8003083F0010389F80030DE
:10234000D6E798F80010595C51613A78DBE700BF96
:102350004D41002030400020000802403440002061
:1023600050410020A2410020A14100204C42002009
:102370004E41002060410020204100208441002087
:102380000642002080410020284100200500002056
:102390000004024000000240A04100200400002090
:1023A0005C41002030B5142495B02246002108A8D5
:1023B00000F033FF2246002102A800F02EFF002586
:1023C0001C4B00951A6C42F080521A641B6C03F08F
:1023D00080530093009B184B01951A6842F44042C9
:1023E0001A601B6803F4404301930122019B1023F0
:1023F0000224CDE90A230821B42307A8CDE90F134D
:102400000794CDE90D45CDE911441394FEF78EFBF9
:10241000FEF72AFA0F23CDE902344FF4A0504FF40F
:102420008053CDE90503052102A80495FEF758FA6B
:1024300015B030BD003802400070004080B58CB04F
:1024400000F03EFE684C694AFF2363615361FEF76A
:10245000B7F867484FF40072214600F0EFFC64487B
:1024600000F0EEFD18B16349614800F000FE6148DC
:1024700000F06AFB90B109225E495D4800F0FCFA69
:102480001E225C495A4800F0B7FB5A4958480A22B4
:1024900000F060FB5749564800F04AFAFFF782FF08
:1024A000142200210DEB020000F0B7FE0024524B75
:1024B00001941A6B4C48514E514D42F004021A637C
:1024C0001A6B02F004020192019A02941A6B42F014
:1024D00080021A631A6B02F080020292029A03943D
:1024E0001A6B42F001021A631A6B02F001020392A6
:1024F000039A04941A6B42F002021A631B6B03F0F6
:1025000002030493224640F2FF21049BFEF7A6F942
:10251000224620213B48FEF7A1F922467F2133487D
:10252000FEF79CF9384B304807944FF4005205A948
:10253000CDE905230127FEF7B1F840F2FF2305A9F5
:102540002948CDE90537CDE90744FEF7A7F8202350
:1025500005A92C48CDE90537CDE90744FEF79EF8DB
:102560007F2305A92148CDE90537CDE90744FEF7CA
:1025700095F82649B460B323C6E9001330465923C1
:10258000F360B461CDE90544FEF786FD05A9304648
:10259000CDE90544FEF79AFD1D482C614FF4E13367
:1025A000C5E900030C232846C5E90534C5E9024402
:1025B000EC61FEF7C5FE3046164EFEF751FC3A467A
:1025C00015492846FEF709FF0FCE05AD0FC596E861
:1025D000070085E80700214605A8FEF72AFF0F4BF4
:1025E0001860FEF721FFFEE70008024000040240E9
:1025F0008441002020410020003802400842002091
:10260000C0410020000002400000211000140040E2
:10261000004400403C3A000835400020BC40002007
:1026200008B502680A4B9A4210D100F043F906221D
:102630000849094800F0B2FE0748FDF7E9FD0649E0
:1026400082B2BDE808400548FEF7A8BE08BD00BF3D
:10265000001400405D3A000835400020C0410020D1
:1026600082B00E4B00220092596C41F480415964B3
:10267000596C01F48041009100990192196C41F06C
:10268000805119641B6C03F080530193019B0F214F
:102690006FF0010002B0FDF7BFBF00BF003802407D
:1026A00007B50F4B02689A4216D1002203F5093391
:1026B0000192196C41F0200119641B6C03F0200396
:1026C000019311463720019BFDF7A6FF372003B089
:1026D0005DF804EBFDF7D4BF03B05DF804FB00BF69
:1026E0000014004010B5044688B01422002103A84D
:1026F00000F093FD2268154B9A4224D103F5FA337A
:10270000002101911A6C124842F400321A641A6CCA
:1027100002F400320192019A02911A6B42F0010216
:102720001A631B6B03F001030293029B0C2202232A
:102730000121CDE903230323CDE90513072303A9D1
:102740000793FDF7ABFF08B010BD00BF0044004089
:102750000000024030B5014689B000223620FDF766
:102760005BFF3620FDF78CFF0025154B02951A6C98
:10277000144C42F010021A641B6C03F01003029315
:1027800001A903A8029BFEF76BF9FEF749F90E4B6E
:10279000236040F2E733E36040000C4BB0FBF3F002
:1027A0000138606020462561A560FEF775FC20B900
:1027B0002046FEF755FB09B030BD0120FBE700BF06
:1027C00000380240504200200010004040420F00FC
:1027D0007047FEE7FEE7FEE7FEE770470148FEF7B9
:1027E00053BB00BF504200200148FEF74DBB00BF65
:1027F0000842002008B50A4B1968024609B9094980
:1028000019601868694602448A4206D900F0D0FC73
:102810000C2303604FF0FF3008BD1A6008BD00BFF5
:1028200074400020944200200F49D1F8883043F4CE
:102830007003C1F888300D4B1A68002042F0010285
:102840001A6098601A6822F0847222F480321A604A
:10285000074A5A601A6822F480221A60D8604FF042
:1028600000638B60704700BF00ED00E0003802405D
:10287000103000240C4BDA6822F08072DA60DA68DB
:1028800042F08072DA60094B1A6822F001021A6085
:102890001A6842F001021A6000225A605A6800BFAA
:1028A00000BF5868801A7047F0ED00E0001000E0AB
:1028B00070470000184AF8B5136801331360174BCE
:1028C0001A6812B11A68013A1A60154E0025374687
:1028D0003378ECB2A34202D8FFF7EAFFF8BDA400B8
:1028E00033195868B0B103789B0713D583680BB1CF
:1028F000013B836083686BB93C44C36801699847B6
:10290000626853689360137813F0010104BF61F3A8
:10291000410313700135DBE7904000209440002014
:1029200078400020014B1868704700BF904000209D
:1029300038B50B78282B04460D4601D0002038BD51
:1029400000F08EFA2946204600F081FB2046442103
:1029500000F0EAFA012038BD10B5044600F080FA14
:102960002046CC2100F0E0FA20464421BDE810408A
:1029700000F0DABAF0B50B78282B85B007460C4684
:10298000154610D0002005B0F0BDC4F3420207EE9A
:10299000902AFAEEEE7A5DE004F00F0207EE902A3C
:1029A000FAEECE7A56E000F0A1FA0028EAD03846D6
:1029B00000F056FA2146384600F049FBBE21384661
:1029C00000F0B2FA002401AE384600F0BDFA3055EE
:1029D0000134092CF8D10821304600F053FB9DF852
:1029E0000C308342CED19DF805309DF8046046EA54
:1029F000032636B2384600F033FAB4B2002EBCBF1C
:102A00006442A4B24FEA141303F0700244F30713B4
:102A100043EA02039DF80820C2F3411202F10902C1
:102A2000B4BF012100210B2AAFD00C2AB4D00A2A4E
:102A30001BBFC4F3C00207EE902AC4F38102F8EE74
:102A4000E77A0DBF07EE902AB6EE007A67EE877A36
:102A5000FAEECF7A07EE103AB8EEC77A77EE277A19
:102A600019B19FED047A77EE677AC5ED007A0120FF
:102A700089E700BF000000002DE9F8430B78282B00
:102A800004460E46914619D00020BDE8F883B9F1FE
:102A90000A0F04D105F0BF0545F020052FE0B9F17C
:102AA0000B0F04D105F0DF0545F0400527E0B9F133
:102AB0000C0F04BF45F06005EDB220E000F0D0F946
:102AC0003146204600F0C3FABE21204600F02CFA21
:102AD000204600F039FA204600F036FA204600F091
:102AE00033FA0746204600F02FFA8046204600F0D1
:102AF0002BFAB9F1090F0546C9D105F09F0520460B
:102B000000F0AEF93146204600F0A1FA20464E21F1
:102B100000F00AFA3946204600F006FA41462046FF
:102B200000F002FA2946204600F0FEF9204600F0A7
:102B300097F93146204600F08AFA2046482100F0F5
:102B4000F3F90120BDE8F8830078A0F1280358428A
:102B5000584170472DE9F0410B78282B04460E466A
:102B600002D00020BDE8F0816FF036059542B8BF75
:102B7000154600F075F93146204600F068FABE218E
:102B8000204600F0D1F9204600F0DEF9204600F0A2
:102B9000DBF9204600F0D8F98046204600F0D4F951
:102BA000204600F0D1F90746204600F059F9314699
:102BB000204600F04CFA20464E2100F0B5F941467F
:102BC000204600F0B1F97D2DA8BF7D25E9B2204651
:102BD00000F0AAF93946204600F0A6F9204600F098
:102BE0003FF93146204600F032FA2046482100F0F5
:102BF0009BF90120BDE8F0812DE9F0410B78282BED
:102C000004460E4602D00020BDE8F0816FF0360584
:102C10009542B8BF154600F023F93146204600F032
:102C200016FABE21204600F07FF9204600F08CF90C
:102C3000204600F089F9204600F086F9204600F091
:102C400083F98046204600F07FF90746204600F0D1
:102C500007F93146204600F0FAF920464E2100F0EF
:102C600063F97D2DA8BF7D25E9B2204600F05CF90F
:102C70004146204600F058F93946204600F054F904
:102C8000204600F0EDF83146204600F0E0F92046FD
:102C9000482100F049F90120BDE8F08100F026B993
:102CA00030B50023032541FA03F2D20706D50268A6
:102CB0005C0005FA04F422EA040202600133102BDE
:102CC000F1D130BDF0B500230325012641FA03F20E
:102CD000D20709D502685C0005FA04F722EA070268
:102CE00006FA04F4224302600133102BEED1F0BD4A
:102CF000064A00F13F4000F57E00116BC0F38F23C0
:102D00000120984008431063704700BF003802401C
:102D10002DE9F04F85B000F13F459DF83840029411
:102D200005F57E059DF83C40DFF8A480039402F190
:102D3000FF3C01930024C5F387254FF0030A5FFA97
:102D40008CFC41FA04F6F3073BD5012338F81560F3
:102D5000D0F80CE003FA04F949EA060628F81560F1
:102D600004FA03F60AFA06F7029BFF4303FA06FB8E
:102D700007EA0E0E4EEA0B0EC0F80CE0D0F800E0A9
:102D800002FA06FB0EEA070E4EEA0B0EBCF1010F2B
:102D9000C0F800E015D8D0F804E0019B2EEA09093C
:102DA00003FA04FE1FFA8EFE49EA0E09C0F80490E9
:102DB000D0F808E0039B07EA0E0703FA06F637434C
:102DC00087600134102CBCD105B0BDE8F08F00BF86
:102DD000984000202DE9F047054616461F469DF80D
:102DE00020809DF824900C4669B1FFF781FFCDF853
:102DF0002490CDF820803B46324621462846BDE847
:102E0000F047FFF785BFBDE8F087000037B5094CF4
:102E100001906568FDF7FEFD019B074AB0FBF2F0EB
:102E2000434301936368019A5B1B9342FAD303B057
:102E300030BD00BF001000E040420F0073B50E46E9
:102E400015460446FFF716FD012201920092002369
:102E500029463046FFF7BEFF2660A58002B070BD50
:102E600010B504460068A1880B048361FFF72AFFB0
:102E70004FF4F070FFF7CAFFA1882068FFF710FF3A
:102E80004620FFF7C3FF2368A2881B691A4214BFBC
:102E9000012400244FF4CD70FFF7B8FF204610BD89
:102EA00010B504460068A3881A04826191B11946DE
:102EB000FFF708FF0A20FFF7A9FF2068A188FFF7A6
:102EC000EFFE3720FFF7A2FFA1882068BDE8104081
:102ED000FFF7E6BE1946FFF7F5FE4120FFF796FF24
:102EE0002068A188FFF7DCFE0520EBE710B504465B
:102EF0000068A1880B048361FFF7E4FE0320FFF75D
:102F000085FFA1882068FFF7CBFE0A20FFF77EFF30
:102F10002368A2881B691A4214BF012400243220AE
:102F2000FFF774FF204610BD70B506460D46092414
:102F3000013C14F0FF0400D170BD05F001013046E2
:102F4000FFF7AEFF6D08F3E770B5064609250024CC
:102F5000013D15F0FF0501D1204670BD3046FFF759
:102F6000C5FF640844EAC014E4B2F1E72DE9F84370
:102F7000037A04460D461BB9FFF772FF814628B15C
:102F80000020A0712072E071BDE8F8832946204638
:102F9000FFF7CAFF01264F4635462046FFF7A6FF3A
:102FA00080462046FFF7A2FFB8F1010F10D101289B
:102FB0002ED1402DE4D984F80690B9F1000F01D14B
:102FC00001232372637A002BDAD00120BDE8F88355
:102FD000804504EB070310D1A279954212D25A7AA8
:102FE000164214BF4FF001084FF00008B8F1000F6F
:102FF0000ED1082D00D8E571A9465A7A22EA0602B8
:103000005A720BE00CBF4FF001084FF00008EDE7DB
:10301000E2194FF00108537A334353724146204678
:103020007600FFF73DFF16F0FF0604BF0137FFB241
:1030300005F1010508BF0126072FEDB2ADD9B8E7AC
:10304000002282710272C271F021FFF78FBF70B54A
:103050000C4655210646FFF767FF651E073415F835
:10306000011F3046FFF760FFA542F8D170BD00F1A7
:1030700009030139113013F8012B01F8012F8342A4
:10308000F9D1704730B501440023884201D1184678
:1030900030BD10F8014B082283EA040515F0010F3A
:1030A0004FEA530318BF83F08C0302F1FF3218BFBD
:1030B000DBB212F0FF024FEA5404EDD1E5E7000065
:1030C00010B594B00023234A0093116C41F0805155
:1030D0001164126C02F080520092009A1E4A019311
:1030E000116841F44041116012680A9302F44042B1
:1030F0004FF4800301920E930823019A0F9301224B
:103100004FF4B4730224079210934FF480320723D4
:1031100007A808920D94119412931393FDF706FDDE
:1031200010B1012014B010BDFDF79EFB0028F8D1AE
:103130000F2302934FF4A0530490059306214FF4FC
:10314000805302A803940693FDF7CAFB003018BF12
:103150000120E7E70038024000700040DFF834D07B
:10316000002103E00C4B5B58435004310B480C4BDF
:1031700042189A42F6D30B4A02E0002342F8043B7D
:10318000094B9A42F9D3FFF74FFB00F017F8FFF70E
:1031900055F9704700000220D03A000800000020D6
:1031A000780000207800002094420020FEE7000014
:1031B000014B1868704700BF1400002070B50D4E19
:1031C0000D4CA41BA4100025A54209D10B4E0C4C9C
:1031D00000F028FCA41BA4100025A54205D170BD59
:1031E00056F8253098470135EEE756F825309847D0
:1031F0000135F2E7C83A0008C83A0008C83A0008A2
:10320000CC3A000810B5431E0A44914200D110BDCB
:1032100011F8014B03F8014FF7E7024403469342CC
:1032200000D1704703F8011BF9E7000038B50546E7
:10323000002945D051F8043C0C1F002BB8BFE418FE
:1032400000F0CCF81F4A1368104633B9636014606D
:103250002846BDE8384000F0C2B8A3420CD9216826
:103260006218934204BF1A685B68636004BF521817
:1032700022600460ECE713465A680AB1A242FAD908
:1032800019685818A0420BD120680144581882428E
:103290001960DDD1106852685A6001441960D7E79F
:1032A00002D90C232B60D3E7206821188A4204BF7F
:1032B00011685268626004BF091821605C60C7E74A
:1032C00038BD00BFB440002070B5CD1C25F003050B
:1032D00008350C2D38BF0C25002D064601DBA94210
:1032E00003D90C233360002070BD00F077F8214A29
:1032F0001468214691B9204C23681BB9304600F070
:103300003DF820602946304600F038F8431C24D1AF
:103310000C233360304600F062F8E4E70B685B1B77
:1033200018D40B2B0FD90B60CD50CC18304600F0C1
:1033300056F804F10B00231D20F00700C31AD3D068
:103340005A42E250D0E78C424B6816BF636013606C
:103350000C46EBE70C464968CCE7C41C24F0030498
:10336000A04205D0211A304600F008F80130CFD035
:103370002560DBE7B4400020B840002038B5064C9B
:103380000023054608462360FFF734FA431C02D1A8
:10339000236803B12B6038BD904200200EB400B505
:1033A0009CB01DAB029006906FF000410948079158
:1033B0000491094953F8042B05910068019302A96F
:1033C00000F068F8029B00221A701CB05DF804EB54
:1033D00003B07047140000200802FFFF70477047D9
:1033E0002DE9F0478E689E4282460C4690469946EB
:1033F00037D88A8912F4906F31D0256809696F1A1D
:103400006569022305EB450595FBF3F509F1010319
:103410003B449D4238BF1D46530530D52946FFF732
:1034200053FF064650B90C23CAF80030A38943F075
:103430004003A3814FF0FF30BDE8F0873A46216991
:10344000FFF7E0FEA38923F4906343F08003A38198
:10345000266165613E44ED1B2660A5604E464E45E3
:1034600000D94E4632464146206800F093FAA368E0
:103470009B1BA36023681E4426600020DCE72A46CD
:1034800000F0A1FA06460028E2D121695046FFF774
:10349000CDFEC8E72DE9F04F1D468B891F069DB074
:1034A00080460C4616460FD50B696BB94021FFF7D5
:1034B0000BFF2060206128B90C23C8F800304FF0C2
:1034C000FF30C8E0402363610023099320238DF877
:1034D000293030238DF82A3003954FF0010B374601
:1034E0003D4615F8013B0BB1252B3ED1B7EB060A43
:1034F0000BD05346324621464046FFF771FF01305C
:1035000000F0A480099B534409933B78002B00F002
:103510009D8000234FF0FF32CDE9052304930793EC
:103520008DF853301A932F46052217F8011B504887
:10353000FCF776FE049BD0B9D90644BF20228DF853
:1035400053201A0744BF2B228DF853202A782A2AA9
:1035500015D0079A2F4600200A25394611F8013B5D
:10356000303B092B4DD9B8B10FE02F46B8E7404AA0
:10357000801A0BFA00F0184304903D46D3E7039AF3
:10358000111D12680391002A01DB079204E05242E8
:1035900043F00203079204933B782E2B0CD17B78E7
:1035A0002A2B33D1039B1A1D1B680392002BB8BF33
:1035B0004FF0FF33023705932E4D3978032228460A
:1035C000FCF72EFE38B14023401B03FA00F0049BA9
:1035D000034301370493397827488DF828100622D1
:1035E0007E1CFCF71DFE002838D0244B13BB039B28
:1035F000073323F0070308330393099B4B440993D4
:103600006DE705FB023201200F46A6E700230137D4
:10361000059319460A25384610F8012B303A092A35
:1036200003D9002BC8D00591C6E705FB0121012372
:103630000746F0E703AB00932246114B04A940462E
:10364000AFF30080B0F1FF3F8146D6D1A3895B067E
:103650003FF535AF09981DB0BDE8F08F03AB00937F
:103660002246074B04A9404600F082F8EAE700BF73
:103670008C3A0008923A0008963A000800000000D0
:10368000E13300082DE9F04791461F468A680B692F
:10369000DDF820809342B8BF1346C9F8003091F896
:1036A000432006460C4612B10133C9F800302368A6
:1036B000990642BFD9F800300233C9F800302568B6
:1036C00015F0060507D104F1190AE368D9F80020BE
:1036D0009B1AAB4228DC94F843302268003318BFB1
:1036E000012392062DD404F1430239463046C047E7
:1036F000013020D02368E568D9F8002003F00603E4
:10370000042B08BFAD1AA36822690CBF25EAE57532
:1037100000259342C4BF9B1AED184FF000091A34DC
:103720004D451AD1002008E0012352463946304663
:10373000C047013003D14FF0FF30BDE8F0870135BD
:10374000C3E7E1185A1C302081F84300224494F862
:10375000451082F843100233C5E70123224639465B
:103760003046C0470130E6D009F10109D8E7000032
:103770002DE9F04301F1430C0C46097E85B06E291A
:103780001746064698460C9A00F0B38022D8632963
:1037900036D00AD8002900F0B980582900F083807B
:1037A00004F1420584F8421032E0642901D069290D
:1037B000F6D120681368050603F104012AD51B68B9
:1037C0001160002B03DA2D225B4284F843206F48FE
:1037D0000A2239E0732900F09D8008D86F2920D093
:1037E0007029DDD1236843F02003236003E07529AD
:1037F00017D07829D4D1782384F84530644855E02F
:103800001368191D1B68116004F1420584F84230E9
:1038100001238CE01B68116010F0400F18BF1BB231
:10382000CFE713682568181D1060280601D51B68AE
:1038300002E06806FBD51B8854486F2914BF0A2292
:103840000822002184F843106568A560002DC0F2AD
:103850009580216821F004012160002B3DD1002DCD
:1038600040F08E806546082A0BD12368DB0708D517
:10387000236962689A42DEBF302305F8013C05F1F6
:10388000FF35ACEB05032361CDF800803B4603AA6E
:1038900021463046FFF7F6FE01304DD14FF0FF30A4
:1038A00005B0BDE8F083394884F8451013682168F5
:1038B0001D1D1B6815600A060BD5CA0744BF41F0E1
:1038C000200121601BB9226822F020022260102210
:1038D000B7E74D0648BF9BB2EFE76546B3FBF2F191
:1038E00002FB1133C35C05F8013D0B460029F5D1FD
:1038F000B9E7136825686169181D106028061B6800
:1039000001D5196002E06A06FBD519800023236106
:103910006546B9E71368191D11601D6862680021CA
:103920002846FCF77DFC08B1401B6060636823619A
:10393000002384F84330A7E723692A4639463046F6
:10394000C0470130AAD023689B0713D4E068039BCB
:103950009842B8BF1846A3E701234A463946304685
:10396000C04701309AD00135E368039A9B1AAB42F5
:10397000F2DCEBE7002504F11909F5E7002BACD1E7
:10398000037884F8423004F142056CE79D3A000860
:10399000AE3A0008884210B501EB020307D8421E78
:1039A00099420AD011F8014B02F8014FF8E783421F
:1039B000F5D98118D21AD34200D110BD13F8014DA8
:1039C00001F8014DF7E7F8B5074614460E4621B950
:1039D0001146BDE8F840FFF777BC22B9FFF726FC97
:1039E00025462846F8BD00F014F8A0420FD2214623
:1039F0003846FFF769FC05460028F2D031462246DA
:103A0000FFF700FC31463846FFF710FCE9E7354682
:103A1000E7E751F8043C181F002BBCBF0B58C01837
:103A200070470000F8B500BFF8BC08BC9E46704760
:0C3A3000F8B500BFF8BC08BC9E4670470B
:103A3C00683A000829220008FDFF00000000000081
:103A4C0080000000000000000000000049444C45CC
:103A5C000074657374202564200D0A00646566612A
:103A6C00756C745461736B00000000000000000062
:103A7C000102030406070809000000000102030408
:103A8C00232D302B2000686C4C006566674546473B
:103A9C0000303132333435363738394142434445BE
:103AAC00460030313233343536373839616263642D
:043ABC00656600003B
:083AC00030C8FF7F0100000087
:043AC800F5010008FC
:043ACC00D10100081C
:103AD000AAAAAAAA013F065B4F666D7D077F670011
:103AE0000024F40018000020000000000000000086
:103AF00000000000000000000000000000000000C6
:103B000000000000000000000000000000000000B5
:103B100000000000000000000000000000000000A5
:103B20000000000000000000000000000000000095
:103B30000000000000000000000000000000000085
:083B400000000000000000007D
:040000050800315D61
:00000001FF
