:020000040800F2
:1000000000000220852F0008A1260008A326000872
:10001000A5260008A7260008A92600080000000061
:10002000000000000000000000000000911B00081C
:10003000AB26000800000000211C0008851C0008F9
:10004000D52F0008D52F0008D52F0008D52F000880
:10005000D52F0008D52F0008D52F0008D52F000870
:10006000D52F0008D52F0008D52F0008D52F000860
:10007000D52F0008D52F0008D52F0008D52F000850
:10008000D52F0008D52F0008D52F0008D52F000840
:10009000D52F0008D52F0008D52F0008D52F000830
:1000A000D52F0008D52F0008D52F0008D52F000820
:1000B000D52F0008D52F0008D52F0008D52F000810
:1000C000D52F0008D52F0008D52F0008D52F000800
:1000D000D52F0008D52F0008D52F0008D52F0008F0
:1000E000D52F0008D52F0008D52F0008D52F0008E0
:1000F000D52F0008D52F0008D52F0008D52F0008D0
:10010000D52F0008D52F0008D52F0008D52F0008BF
:10011000D52F0008D52F0008AD260008B926000805
:10012000D52F0008D52F0008D52F0008D52F00089F
:10013000D52F00080000000000000000D52F0008A7
:10014000D52F0008D52F0008D52F0008D52F00087F
:10015000D52F0008D52F0008D52F0008D52F00086F
:10016000D52F0008D52F0008D52F0008D52F00085F
:10017000D52F0008D52F0008D52F0008000000005B
:1001800000000000D52F0008000000000000000063
:10019000D52F00080000000000000000D52F000847
:1001A000000000000000000000000000D52F000843
:1001B000D52F0008D52F0008D52F0008D52F00080F
:0401C000D52F00082F
:1001D00010B5054C237833B9044B13B10448AFF381
:1001E00000800123237010BD1400002000000000D7
:1001F0003030000808B5034B1BB103490348AFF387
:10020000008008BD00000000180000203030000809
:1002100053B94AB9002908BF00281CBF4FF0FF316D
:100220004FF0FF3000F072B9ADF1080C6DE904CE6B
:1002300000F006F8DDF804E0DDE9022304B07047C1
:100240002DE9F047089E04468846002B4BD18A4290
:10025000154667D9B2FA82F24AB1C2F1200701FA13
:1002600002F320FA07F7954047EA030894404FEA63
:10027000154E230CB8FBFEF71FFA85FC0EFB178802
:1002800043EA084307FB0CF1994209D9EB1807F13F
:10029000FF3080F01B81994240F21881023F2B44CD
:1002A0005B1AA4B2B3FBFEF00EFB103344EA034426
:1002B00000FB0CFCA44509D92C1900F1FF3380F098
:1002C0000781A44540F2048102382C4440EA0740EB
:1002D000A4EB0C0400271EB1D4400023C6E9004360
:1002E0003946BDE8F0878B4209D9002E00F0EB803B
:1002F0000027C6E9000138463946BDE8F087B3FA61
:1003000083F7002F47D18B4202D3824200F2FA805A
:10031000841A61EB030301209846002EE0D0C6E961
:100320000048DDE702B9FFDEB2FA82F2002A40F0AF
:100330008F80491B4FEA154E1FFA85F80127B1FB44
:10034000FEFC230C0EFB1C1143EA014308FB0CF1DD
:10035000994207D9EB180CF1FF3002D2994200F212
:10036000CD808446591AA3B2B1FBFEF00EFB1014E7
:1003700043EA044408FB00F8A04507D92C1900F112
:10038000FF3302D2A04500F2B6801846A4EB080461
:1003900040EA0C409FE7C7F1200CBB4022FA0CFE5C
:1003A0004EEA030E01FA07F420FA0CF521FA0CF3D9
:1003B0004FEA1E482543B3FBF8F92C0C08FB193310
:1003C0001FFA8EFA44EA034309FB0AF49C4202FA3C
:1003D00007F200FA07F10BD91EEB030309F1FF3016
:1003E00080F087809C4240F28480A9F10209734426
:1003F0001B1BADB2B3FBF8F008FB103345EA034416
:1004000000FB0AFAA24508D91EEB040400F1FF33F1
:100410006BD2A24569D90238744440EA0940A0FB76
:100420000289A4EB0A044C45C2464B4654D351D032
:10043000002E69D0B1EB0A0564EB030404FA0CFC4E
:10044000FD40FC404CEA0505C6E90054002747E79B
:10045000C2F1200320FA03F7954001FA02F021FAD5
:1004600003F34FEA154E3843010CB3FBFEF71FFAB6
:1004700085F80EFB173341EA034107FB08F38B4273
:1004800004FA02F407D9691807F1FF3C2FD28B4216
:100490002DD9023F2944CB1A81B2B3FBFEF00EFBEB
:1004A000103341EA034100FB08F38B4207D9691876
:1004B00000F1FF3C17D28B4215D902382944C91AE2
:1004C00040EA07473BE73746304609E70746E7E695
:1004D0001846FBE64145ABD2B8EB020A69EB0E02C7
:1004E00001381346A4E76046E9E7184695E76746F2
:1004F000D1E781467CE702382C4447E7ACF1020C97
:100500002B442FE7384608E73746E9E6704700BF37
:1005100008B50B4B1A6842F400721A601A6842F46C
:1005200080621A601A6842F480721A60032000F038
:1005300009F8002002F076F801F0FAFF002008BD6B
:10054000003C0240074AD36823F4E0631B041B0C01
:1005500043F0BF63000243F4003300F4E060034360
:10056000D360704700ED00E0174B30B5DC68C4F392
:100570000224C4F10703251D042B28BF0423062DE4
:100580004FF0010505FA03F303F1FF338CBF033C81
:1005900000241940A14005FA04F4013C224000283F
:1005A00042EA01024FEA0212ADBF00F1604000F0E2
:1005B0000F00064B00F56140B5BFD2B2D2B21A545B
:1005C00080F8002330BD00BF00ED00E014ED00E036
:1005D000002808DB4209012300F01F0003FA00F0A5
:1005E000014B43F82200704700E100E02DE9F04F95
:1005F00085B00B68DFF8A081654ADFF8A091019310
:1006000000234FF0010E019C0EFA03FE0EEA0406D1
:10061000B64540F0AA804C6824F01007022F16D18E
:100620004FEAD30A00EB8A0A03F0070BDAF82050EE
:100630004FEA8B0B4FF00F0C0CFA0BFC25EA0C0C5D
:100640000D6905FA0BF545EA0C05CAF820504FEA8A
:10065000430A0325D0F800B005FA0AF5ED4304F08B
:10066000030C0BEA050B0CFA0AFC013F4CEA0B0CDD
:10067000012FC0F800C011D8876807EA050BCF68C2
:1006800007FA0AFC4CEA0B078760476827EA0E0E58
:10069000C4F300179F4047EA0E074760C7683D4014
:1006A0008F6807FA0AF73D43C560E5005DD54FF056
:1006B000000BCDF80CB0D8F84470364D47F48047A5
:1006C000C8F84470D8F8447007F480470397039F34
:1006D00023F0030707F1804707F59C3703F0030C6D
:1006E000D7F808A04FEA8C0C4FF00F0E0EFA0CFE54
:1006F000A8422AEA0E0E3FD005F58065A8423DD0FB
:1007000005F58065A8423BD005F58065A84239D043
:1007100005F58065A84237D0484537D005F5006516
:10072000A84214BF0725062505FA0CF545EA0E0573
:10073000BD601568F74314F4803F0CBF3D4035435E
:100740001560556814F4003F0CBF3D4035435560BB
:10075000956814F4801F0CBF3D4035439560D56803
:10076000A40254BF3D403543D5600133102B7FF4C4
:1007700048AF05B0BDE8F08F5D46D5E70125D3E76A
:100780000225D1E70325CFE70425CDE70525CBE7F3
:10079000003C0140000002400038024000140240CA
:1007A0000369194214BF0120002070470AB181611A
:1007B00070470904FBE7000037B500230193184B8D
:1007C000184C1A6C42F080521A641B6C03F0805370
:1007D0000193019B144B01221A6001F0B7FF0546FB
:1007E0006368DA030BD5114B0E4C01221A6001F03D
:1007F000ADFF054663689B030AD5002006E001F0C3
:10080000A5FF401BB0F57A7FEAD9032003B030BDC5
:1008100001F09CFF401BB0F57A7FEBD9F5E700BFF4
:10082000003802400070004040000E4244000E427A
:100830002DE9F0410D46044610B90120BDE8F081D4
:10084000444B1A6802F00F028A4228D321688F07AE
:100850002DD4C80740D43F4B1A6802F00F029542CE
:1008600066D3226851076CD4130707D53A4A216929
:10087000936823F4604343EAC103936000F0B6F841
:10088000354B364A9B68C3F30313D35CD840344BD3
:100890001860002001F0C6FE0020BDE8F081CAB259
:1008A0001A701B6803F00F039942C6D1CEE72A4B9A
:1008B00011F0040F1EBF9A6842F4E0529A600E07CE
:1008C00042BF9A6842F460429A609A68A06822F037
:1008D000F00202439A60BCE762681F4B012A1DD1F7
:1008E0001B6813F4003FA8D01B4EB36823F003032A
:1008F0001343B36001F02AFF41F288380746B3681A
:10090000626803F00C03B3EB820FA4D001F01EFF6A
:10091000C01B4045F3D90320BDE8F081911E012999
:100920001B6802D813F0007FDDE713F0020FDAE74F
:10093000EAB21A701B6803F00F039D427FF47DAF8B
:100940008FE70549E0688B6823F4E05303438B602D
:100950008AE700BF003C02400038024075300008C2
:1009600010000020014B1868704700BF10000020E5
:10097000044B054A9B68C3F38223D35C034A106887
:10098000D840704700380240853000081000002031
:10099000044B054A9B68C3F34233D35C034A106897
:1009A000D840704700380240853000081000002011
:1009B0000F2303600B4B9A6802F0030242609A68AF
:1009C00002F0F00282609A6802F4E052C2609B6812
:1009D000DB0803F4E0530361034B1B6803F00F03D0
:1009E0000B60704700380240003C0240204908B5C7
:1009F0008B6803F00C03082B07D00C2B20D01D4A6A
:100A00001D48042B18BF104608BD4A684B6849684A
:100A100013F4800314BF18481648C1F3881118BF97
:100A2000002302F03F02A1FB0001FFF7F1FB104B96
:100A30005B68C3F3014301335B00B0FBF3F008BD17
:100A40004A684B68496813F4800314BF0A48094890
:100A5000C1F3881118BF002302F03F02A1FB00017F
:100A6000FFF7D6FB024B5B68C3F30273E5E700BFF9
:100A7000003802400024F40000127A0003682DE9D7
:100A8000F341DF07044610D423689E0767D4236828
:100A90001A0700F1B28023685B0700F1D080A269D9
:100AA000002A40F0398100201EE0974B9A6802F03E
:100AB0000C02042A10D09A6802F00C02082A02D113
:100AC0005B685D0208D4904B9A6802F00C020C2A15
:100AD0000DD15A6850020AD58B4B1B689903D3D5A8
:100AE0006368002BD0D1012002B0BDE8F0816268BC
:100AF000B2F5803F11D11A6842F480321A6001F0D9
:100B000025FE814D06462B689A03BDD401F01EFEDA
:100B1000801B6428F7D90320E6E77B4DB2F5A02FB0
:100B20002B6807D143F480232B602B6843F4803378
:100B30002B60E4E723F480332B602B6823F48023BD
:100B40002B60002ADBD101F001FE06462B689B03D7
:100B50009AD501F0FBFD801B6428F7D9DBE76A4BCF
:100B60009A6812F00C0F10D09A6802F00C02082A52
:100B700002D15B685F0208D5634A936803F00C03F7
:100B80000C2B11D153685E020ED45F4B1A68950787
:100B900002D5E268012AA6D11A68216922F0F8027A
:100BA00042EAC1021A6072E7E268584BB2B1012210
:100BB0001A6001F0CBFD544D06462B68980707D507
:100BC0002B68226923F0F80343EAC2032B605EE737
:100BD00001F0BCFD801B0228EFD99CE71A6001F0F0
:100BE000B5FD494D06462B6899077FF550AF01F0DA
:100BF000ADFD801B0228F6D98DE76269444B7AB1BE
:100C000001221A6001F0A2FD3F4D06466B6F9F075F
:100C10003FF541AF01F09AFD801B0228F6D97AE733
:100C20001A6001F093FD384D06466B6F98077FF50B
:100C300032AF01F08BFD801B0228F6D96BE7324BF7
:100C40001A6C12F0805228D101921A6C42F0805234
:100C50001A641B6C03F080530193019B01262D4DF8
:100C60002B68D9051BD5A368274D012B27D12B6FE6
:100C700043F001032B6701F069FD234D074641F264
:100C800088382B6F9B0739D5002E3FF408AF1E4ADA
:100C9000136C23F08053136401E70026DFE72B6811
:100CA00043F480732B6001F051FD07462B68DA0591
:100CB000D9D401F04BFDC01B0228F7D92BE7052B37
:100CC00004D12B6F43F004032B67D0E72A6F22F087
:100CD00001022A672A6F22F004022A67002BCAD178
:100CE00001F034FD41F2883807462B6F9807CBD5C9
:100CF00001F02CFDC01B4045F7D90CE701F026FDA3
:100D0000C01B4045BDD906E70038024000004742FD
:100D1000800E474200700040234DAB6803F00C0387
:100D2000082B3FF4E0AE214E0023022A33602DD180
:100D300001F00CFD07462B68990121D4226AE36972
:100D40001343626A43EA8213E26A43EA0263226B54
:100D500043EA0273A26A144C5208013A43EA02437E
:100D60006B600123336001F0F1FC054623689A01B2
:100D70003FF599AE01F0EAFC401B0228F6D9CAE61D
:100D800001F0E4FCC01B0228D5D9C4E601F0DEFC6A
:100D900004462B689B017FF586AE01F0D7FC001B53
:100DA0000228F6D9B7E600BF00380240600047428B
:100DB0000368DA6842F00102DA609A6802F007021A
:100DC000062A1EBF1A6842F001021A60002070470E
:100DD000704770477047704703681A69910710B5EC
:100DE00004460ED5DA6892070BD56FF002021A613D
:100DF0009B6901229B07027777D0FFF7EAFF002368
:100E0000237723681A69500710D5DA6851070DD582
:100E10006FF004021A619B69022213F4407F22776B
:100E2000204668D0FFF7D5FF0023237723681A698F
:100E300012070FD5DA6810070CD56FF008021A6197
:100E4000DB6904229907227720465AD0FFF7C1FFB9
:100E50000023237723681A69D20610D5DA68D006F2
:100E60000DD56FF010021A61DB69082213F4407F80
:100E7000227720464BD0FFF7ACFF0023237723686F
:100E80001A69D10708D5DA68D20705D56FF00102D3
:100E90001A61204601F03CFB23681A69100608D548
:100EA000DA68110605D56FF080021A61204600F05D
:100EB000D4F823681A69520608D5DA68500605D5B1
:100EC0006FF040021A612046FFF785FF23681A6918
:100ED000910622D5DA6892061FD56FF020022046CF
:100EE0001A61BDE8104000F0B7B8FFF771FF204667
:100EF000FFF770FF83E7FFF76BFF2046FFF76AFFFE
:100F000092E7FFF765FF2046FFF764FFA0E7FFF7D2
:100F10005FFF2046FFF75EFFAFE710BD304A036872
:100F2000904212D0B0F1804F0FD0A2F57C42904297
:100F30000BD002F58062904207D002F580629042A9
:100F400003D002F57842904219D14A6823F0700329
:100F50001343234A904229D0B0F1804F26D0A2F506
:100F60007C42904222D002F5806290421ED002F56F
:100F7000806290421AD002F57842904216D0194A07
:100F8000904213D002F5806290420FD002F5806249
:100F900090420BD0A2F59832904207D002F58062C1
:100FA000904203D002F58062904203D1CA6823F4D4
:100FB000407313434A6923F08003134303608B6833
:100FC000C3620B688362064B984203D003F58063CB
:100FD000984201D10B69036301234361704700BF4D
:100FE000000001400040014010B50446A0B190F857
:100FF0003D3003F0FF021BB980F83C2001F0B8FA45
:10100000022384F83D302068211DFFF787FF01236C
:1010100084F83D30002010BD012010BD90F83C3018
:10102000012B30B54FF0020314D0046880F83D3036
:101030006268A3680D68496822F0700223F080039B
:101040000B432A436260A360012380F83D300023F4
:1010500080F83C30184630BD704770472DE9F047A6
:101060000668C2683369C16923F44053134333618E
:10107000044683680069F2680343606922F41642FB
:10108000034322F00C020B431343F3607369A2691C
:1010900023F440731343B1F5004F73617A4B7CD155
:1010A0009E4203D003F580639E4244D1FFF770FC5B
:1010B000192505FB00F360684FF064094000B3FB9D
:1010C000F0F3B3FBF9F34FEA0318FFF761FC636831
:1010D00068435B00B0FBF3F7FFF75AFC63686843B3
:1010E0005B00B0FBF3F3B3FBF9F309FB1373DB0015
:1010F0003233B3FBF9F35B0003F4F877FFF748FCF6
:10110000626868435200B0FBF2FAFFF741FC636883
:1011100068435B00B0FBF3F3B3FBF9F309FB13A3E4
:10112000DB003233B3FBF9F303F0070343443B44E2
:10113000B360BDE8F087FFF71BFC192505FB00F342
:1011400060684FF064094000B3FBF0F3B3FBF9F3C0
:101150004FEA0318FFF70CFC636868435B00B0FBC1
:10116000F3F7FFF705FC636868435B00B0FBF3F33C
:10117000B3FBF9F309FB1373DB003233B3FBF9F371
:101180005B0003F4F877FFF7F3FB626868435200F3
:10119000B0FBF2FAFFF7ECFBB9E79E4202D03B4B03
:1011A0009E4240D1FFF7F4FB676819254FF06409B0
:1011B00005FB00F3BF00B3FBF7F3B3FBF9F31F012B
:1011C000FFF7E6FB636868439B00B0FBF3F8FFF7AB
:1011D000DFFB636868439B00B0FBF3F3B3FBF9F3F9
:1011E00009FB13831B013233B3FBF9F303F0F0085F
:1011F000FFF7CEFB626868439200B0FBF2FAFFF79C
:10120000C7FB636868439B00B0FBF3F3B3FBF9F3E0
:1012100009FB13A31B013233B3FBF9F303F00F03F4
:1012200043EA080383E7FFF7A3FB676819254FF03C
:10123000640905FB00F3BF00B3FBF7F3B3FBF9F35D
:101240001F01FFF795FB636868439B00B0FBF3F851
:10125000FFF78EFB636868439B00B0FBF3F3B3FBBF
:10126000F9F309FB13831B013233B3FBF9F303F0EA
:10127000F008FFF77DFB626868439200B0FBF2FA6A
:10128000FFF776FBBDE700BF0010014000140140EE
:1012900010B5044640B390F8393003F0FF021BB993
:1012A00080F8382001F086F92268242384F8393048
:1012B000D36823F40053D3602046FFF7CFFE2368A2
:1012C0001A6922F490421A615A6922F02A025A617C
:1012D000DA6842F40052DA6000202023E06384F8E8
:1012E000393084F83A3010BD012010BD90F8393003
:1012F000202B18D1A9B1A2B190F83830012B12D00F
:10130000C2840162828400230168C363212280F8C1
:101310003920CA6880F8383042F08002CA60184626
:101320007047012070470220704708B500F034FA7A
:10133000002008BD70B5054646692A694068B5F9C0
:1013400008400B4686B0296876B1AD6965B1842C3A
:1013500014BF0334002402958DE8500000F0B8F962
:101360000590059806B070BD842C14BF033400248A
:1013700005AD92B28DE8300000F0E1F90128F0D01F
:101380000020EFE700F1080343604FF0FF32C36035
:10139000036100238260036070470023036170478C
:1013A00043684B609A688A609A68516099600368E4
:1013B00008610133036070470A68531C30B50AD1D5
:1013C00003695A684A6091608B60596003680861DC
:1013D0000133036030BD00F108035C682568AA4250
:1013E000EFD32346F9E74168826803698A6082681F
:1013F00051605968884208BF5A60002202611A6829
:10140000013A1A60186870472DE9F041064600F06D
:10141000D1FB2D4B2D4C1A682D4F01321A602568D7
:10142000002D45D126601B68012B1CD1781914357D
:10143000FFF7A8FF8C2DF9D1DFF8C080254D40467D
:10144000FFF7A0FF2846FFF79DFF2348FFF79AFF0D
:101450002248FFF797FF2248FFF794FF214BC3F87C
:101460000080214B1D60214A21491368086801331F
:101470001360F26A01239340034314200B6000FBC6
:101480000270311DFFF78CFF00F0B6FB194B1B6893
:1014900063B12368DA6AF36A9A4207D2164B4FF0B7
:1014A00080521A60BFF34F8FBFF36F8FBDE8F0819A
:1014B000104B1B68002BD6D12368DA6AF36A9A4274
:1014C00098BF2660CFE700BFC80000203000002092
:1014D0003C000020F4000020100100203C0100200E
:1014E000280100203400002038000020D80000200F
:1014F000DC0000202401002004ED00E0E0000020DA
:10150000064A13681968064B19B94FF0FF321A6082
:1015100070471268D268D2685268F8E73400002039
:10152000080100202DE9F0470A9CDDF82480266B95
:1015300002F18042013A06EB82069A4681464B1E32
:1015400026F0070604F134020F31587802F8010B37
:1015500013F8010F08B18B42F7D1089D062D28BF63
:1015600006250027E5626564201D84F84370A764A2
:10157000FFF713FFC5F1070504F11800FFF70DFF92
:10158000E7642461A561646284F85070524649465C
:10159000304600F0E5FA2060B8F1000F01D0C8F83D
:1015A0000040BDE8F08710B590F8513004463BB9D3
:1015B000006B00F0CFFC2046BDE8104000F0CABC34
:1015C000012BF9D0022B08D04FF0500383F3118880
:1015D000BFF36F8FBFF34F8FFEE710BD80B5144E82
:1015E000144F154C154D23686BB9154B1B68012B17
:1015F00006D94FF080533B60BFF34F8FBFF36F8F1F
:1016000000F0E0FCEDE700F0D5FAF368D3F80C80C9
:1016100008F10400FFF7E7FE2B68013B2B6023680D
:10162000013B236000F0E8FA4046FFF7BCFFDAE731
:101630003C01002004ED00E0CC000020C8000020A8
:101640003C000020F8B51B4B1B4E1D68044630685B
:1016500004300F46FFF7C7FE334640B93168174ED6
:10166000C96A32680120884022EA00023260621CA6
:1016700007D137B1196812480431BDE8F840FFF7C7
:101680008FBE2C441A68A542546007D90D4A1068D1
:101690001968BDE8F8400431FFF78EBE0A4A1068A9
:1016A00019680431FFF788FE084B1A68944238BF66
:1016B0001C60F8BD5001002030000020DC0000203C
:1016C00028010020380000203400002008010020FC
:1016D00070B586B00B9D0C9C45B94FF0500383F359
:1016E0001188BFF36F8FBFF34F8FFEE744B94FF000
:1016F000500383F31188BFF36F8FBFF34F8FFEE763
:1017000054260496049E542E08D04FF0500383F3C1
:101710001188BFF36F8FBFF34F8FFEE7256302255C
:1017200084F8515005AD01950A9D02940095FFF78C
:10173000F9FE2046FFF768FE059806B070BD2DE95A
:10174000F043074685B0900088461646994600F05B
:1017500073FB0546E8B1542000F06EFB0446A8B1C7
:10176000002380F851300D9B056301930C9B029080
:10177000009332464B4641463846FFF7D3FE20469B
:10178000FFF742FE012005B0BDE8F083284600F0D7
:10179000E1FB4FF0FF30F6E710B588B0002407AA50
:1017A00006A905A80594069400F00EFC059B02937B
:1017B000069B019300942346079A0D490D48FFF7B5
:1017C00087FF90B14FF0500383F31188BFF36F8F01
:1017D000BFF34F8F084B4FF0FF321A60074B0122C7
:1017E0001A60074B1C6000F07DFA08B010BD00BF06
:1017F00064300008DD1500080801002024010020E5
:1018000050010020024A136801331360704700BF83
:10181000D40000202DE9F84F3C4B1B68002B53D11E
:101820003B4B1C6801341C60BCB93A4B1A68126807
:1018300042B14FF0500383F31188BFF36F8FBFF3B2
:101840004F8FFEE7344A1968106818601160334AF8
:10185000136801331360FFF753FE314D314F2B688E
:101860009C424FF0000B3ED3DFF8A880DFF8C49015
:10187000D8F80020126872BB4FF0FF322A6032E0C5
:1018800006F1040A5046FFF7AEFDB16A19B106F140
:101890001800FFF7A8FDF06AD9F80030012202FA1B
:1018A00000F11943204BC9F800104FF0140E5146B7
:1018B0000EFB0030FFF774FD3868F16AC26A91428E
:1018C00028BF4FF0010BD3E7184A136801331360A8
:1018D0004FF0000B11E0D8F80020D268D66871688C
:1018E0008C42CDD229603A680F4BD16A14224A4308
:1018F0009A58022A28BF4FF0010B0D4A1268002A9D
:1019000018BF4FF0010B5846BDE8F88FD4000020F7
:101910005001002034000020380000200C0100207D
:1019200008010020300000203C000020D0000020F2
:1019300054010020DC0000202DE9F843314C2368DD
:1019400043B94FF0500383F31188BFF36F8FBFF398
:101950004F8FFEE700F02EF92368013B23602468D7
:101960002CB1002400F048F92046BDE8F883264B4E
:101970001B68002BF5D0DFF8A890244FDFF8A48077
:10198000D9F80030E3B90CB1FFF7BAFD204D2C684F
:1019900044B1204E0127FFF73DFF00B13760013C05
:1019A000F9D12C601B4B1B68002BDAD01A4B4FF07F
:1019B00080521A60BFF34F8FBFF36F8F0124D1E7BE
:1019C000D9F80C30DC68261D04F11800FFF70BFD78
:1019D0003046FFF708FDE26A3968012505FA02F38F
:1019E00014200B4300FB028031463B60FFF7D8FC1C
:1019F0000A4BE26A1B68DB6A9A4224BF054B1D60F2
:101A0000BEE700BFD4000020C8000020DC0000209A
:101A1000D00000205401002004ED00E03000002040
:101A2000100100203C00002008B540B90E4B4FF0DB
:101A300080521A60BFF34F8FBFF36F8F08BD0B4BFF
:101A4000196841B14FF0500383F31188BFF36F8FD2
:101A5000BFF34F8FFEE7FFF7D5FEFFF7F3FDFFF76C
:101A60006BFF0028E2D008BD04ED00E0D4000020A8
:101A7000174B1A68174B10B512B101221A6010BD2E
:101A80001A60154B1B68B3FA83F3DBB2C3F11F0373
:101A9000142212495A4388188C5844B94FF0500305
:101AA00083F31188BFF36F8FBFF34F8FFEE7446856
:101AB0000832646844600A44944204BF6268426029
:101AC000142202FB03135B68DA68054BD6E700BFFC
:101AD000D400002054010020DC0000203C00002045
:101AE0003000002082B0002301930D4B1B680133AE
:101AF00008D04FF0500383F31188BFF36F8FBFF30B
:101B00004F8FFEE74FF0500383F31188BFF36F8FC1
:101B1000BFF34F8F019B002BFCD002B0704700BF7A
:101B20000000002008480068006880F308884FF033
:101B3000000080F3148862B661B6BFF34F8FBFF325
:101B40006F8F00DF00BF000008ED00E0DFF80C0041
:101B5000016841F4700101607047000088ED00E009
:101B60004FF0807340F8043C074B40F80C3C21F0E8
:101B700001016FF0020340F8081C40F8202C40F8E7
:101B8000243C4438704700BFE51A000800000000FC
:101B9000074B19680868B0E8F04F80F30988BFF375
:101BA0006F8F4FF0000080F311887047AFF3008013
:101BB000300000204FF0500383F31188BFF36F8F84
:101BC000BFF34F8F0A4A13680133012B13600DD105
:101BD000084B1B6813F0FF0F08D04FF0500383F33E
:101BE0001188BFF36F8FBFF34F8FFEE7704700BFC1
:101BF0000000002004ED00E0084A136843B94FF0EC
:101C0000500383F31188BFF36F8FBFF34F8FFEE74D
:101C1000013B13600BB983F311887047000000206B
:101C2000EFF30980BFF36F8F154B1A681EF0100F8A
:101C300008BF20ED108A20E9F04F10602DE909005F
:101C40004FF0500080F31188BFF34F8FBFF36F8FB9
:101C5000FFF70EFF4FF0000080F3118809BC1968F0
:101C60000868B0E8F04F1EF0100F08BFB0EC108A03
:101C700080F30988BFF36F8F704700BFAFF3008018
:101C80003000002008B54FF0500383F31188BFF3F4
:101C90006F8FBFF34F8FFFF7BDFD18B1034B4FF0B0
:101CA00080521A60002383F3118808BD04ED00E020
:101CB000084A0949002313600B60084B4FF47A71FE
:101CC0001B68B3FBF1F30649013B0B60072313606C
:101CD000704700BF10E000E018E000E010000020B6
:101CE00014E000E0394B3A4A13B51968914208D123
:101CF0004FF0500383F31188BFF36F8FBFF34F8F03
:101D0000FEE71A68334B9A4208D14FF0500383F331
:101D10001188BFF36F8FBFF34F8FFEE72E4B1A78FA
:101D2000D2B20192FF221A701B782C4ADBB28DF8D6
:101D300003309DF8033003F050031370284B072243
:101D40001A6000219DF80300000602F1FF340DD453
:101D500001B11A601A68032A11D04FF0500383F3BF
:101D60001188BFF36F8FBFF34F8FFEE79DF80320FD
:101D70005200D2B28DF8032001212246E2E712027E
:101D800002F4E0621A60019B134ADBB21370154B38
:101D90001A6842F470021A601A6842F070421A60BF
:101DA000FFF786FF104B00241C60FFF7CFFE0F4AA1
:101DB000136843F040431360FFF7B4FEFFF758FE8B
:101DC000FFF790FE204602B010BD00BF00ED00E01E
:101DD00071C20F4170C20F4100E400E058010020C1
:101DE0005C01002020ED00E00000002034EF00E066
:101DF00010B50F4B1A68824218D35C6819198842D3
:101E000001BF4168184609195960446801198A429E
:101E100007D1084909688A421FBF51681268091929
:101E200041609842026018BF186010BD1346E1E798
:101E3000703D0020600100202DE9F0410446FFF7CD
:101E4000E1FC3E493E4D0B680BBB3E4A56071FBFA7
:101E5000D01D20F0070002F570531B1A14BF024674
:101E60004FF470531344083B23F00703364E0B60C6
:101E700000207060326058601860981A1360334B0D
:101E800050601860324B18604FF000432B602F6891
:101E9000274216D1002C41D004F1080358071CBF7B
:101EA00023F00703083363B1294A1668B34290460A
:101EB00007D8254A15686868834204D809688D42A6
:101EC00007D100242AE02C68002CF7D02A462546AA
:101ED000F1E7296814681160C21A102A0FD9E818AE
:101EE000410708D04FF0500383F31188BFF36F8F81
:101EF000BFF34F8FFEE742606B60FFF779FF134936
:101F00006B680868F61A1F4386424FF00003C8F852
:101F1000006038BF0E6008346F602B60FFF70CFD67
:101F2000630708D04FF0500383F31188BFF36F8F1E
:101F3000BFF34F8FFEE72046BDE8F081600100202F
:101F4000643D002064010020703D00206C3D0020B5
:101F5000683D002010B5044670B3184A50F8043CA0
:101F60001268134208D14FF0500383F31188BFF376
:101F70006F8FBFF34F8FFEE750F8081C41B14FF051
:101F8000500383F31188BFF36F8FBFF34F8FFEE7CA
:101F900023EA020340F8043CFFF734FC084A54F8F3
:101FA000043C1168A4F108000B441360FFF720FF04
:101FB000BDE81040FFF7C0BC10BD00BF643D00206D
:101FC000683D002070470000034B0360034B0B602B
:101FD00080231360704700BF783F0020783D0020C9
:101FE00037B5094C01906568FEF7BCFC019B074AB8
:101FF000B0FBF2F0434301936368019A5B1B934289
:10200000FAD303B030BD00BF001000E040420F0023
:102010000549064801234FF40062C1E9002300236B
:10202000CB60FEF7E3BA00BFDC40002000000240B6
:102030000449054800234FF40062C1E900238B6086
:10204000FEF7D4BADC4000200000024010B50D4C71
:10205000FFF7DEFF00224FF400612046FEF7A6FBEB
:1020600044F25060FFF7BCFF204601224FF40061AC
:10207000FEF79CFB1420FFF7B3FFBDE81040FFF70D
:10208000D7BF00BF0000024038B52820FFF7A8FFE7
:102090004FF400610D48FEF783FBA8B95020FFF70D
:1020A0009FFF4FF400610948FEF77AFB002814BF38
:1020B0000124FF24054D4FF400612846FEF770FB14
:1020C0000028F8D1204638BD0024F3E70000024084
:1020D00070B5144E002407254FF400611148FEF737
:1020E0005FFB0028F8D02820FFF77AFF4FF400614B
:1020F0003046FEF755FB0123AB405BB264B270B9CA
:1021000024EA0304E4B24FF400613046FEF748FBD2
:102110000028F8D115F1FF35DED2204670BD1C43F2
:10212000F0E700BF0000024083B5494F494C4A4EDA
:102130000023236023681D2BF8DCFFF787FFFFF7E0
:10214000A3FF464B464D1870FFF7C2FF2870FFF7FC
:10215000BFFF444BDFF840811870FFF7B9FF424BD7
:10216000DFF838911870FFF7B3FF404B1870FFF796
:10217000AFFF3F4B18802B780A25B3FBF5F205FB28
:102180001231397088F800203A49226840F6B83098
:102190008B54FFF749FC4FF400513046FEF700FB2B
:1021A000002840D0344800F0E3FB08B3334800F087
:1021B00089FCE8B1DFF8E8A02F493048524600F02A
:1021C000EDFAA8B12D4800F0DBFADAED007A2C49DF
:1021D000FCEEE77ACDED017A9DF80430B3FBF5F221
:1021E00005FB12350D7027490A70226826498B5469
:1021F00099F80010254B264A19B322490978595CF1
:1022000051611F4A12789B5C224A7361536983F0C3
:102210002003536123681D2B04BF00232360236820
:102220000133236086E74FF400513046FEF7B8FAD9
:102230000028DDD199F8003083F0010389F80030DF
:10224000D6E798F80010595C51613A78DBE700BF97
:1022500085400020CC3F002000080240D03F0020F5
:1022600088400020DA400020D9400020844100202E
:10227000864000209840002058400020BC400020AC
:102280003E410020B84000206040002005000020B2
:102290000004024000000240D8400020040000205A
:1022A0009440002030B5142495B02246002108A89F
:1022B00000F0B6FE2246002102A800F0B1FE002583
:1022C0001C4B00951A6C42F080521A641B6C03F090
:1022D00080530093009B184B01951A6842F44042CA
:1022E0001A601B6803F4404301930122019B1023F1
:1022F0000224CDE90A230821B42307A8CDE90F134E
:102300000794CDE90D45CDE911441394FEF7B6FBD2
:10231000FEF752FA0F23CDE902344FF4A0504FF4E8
:102320008053CDE90503052102A80495FEF780FA44
:1023300015B030BD003802400070004000B58DB0CF
:1023400000F0D2FD654C664AFF2363615361FEF7DE
:10235000DFF864484FF40072214600F083FC6148C6
:1023600000F082FD18B160495E4800F094FD5E48BF
:1023700000F0FEFA90B109225B495A4800F090FA49
:102380001E225949574800F04BFB574955480A222D
:1023900000F0F4FA5449534800F0DEF9FFF782FFE9
:1023A000142200210DEB020000F03AFE00244F4BF6
:1023B00001941A6B49484E4E42F004021A631A6B9C
:1023C00002F004020192019A02941A6B42F0800218
:1023D0001A631A6B02F080020292029A03941A6B3B
:1023E00042F001021A631A6B02F001020392039A8F
:1023F00004941A6B42F002021A631B6B03F002038F
:102400000493224640F2FF21049BFEF7CFF92246B7
:1024100020213848FEF7CAF922467F213048FEF7CE
:10242000C5F9354B2D4807944FF4005205A9CDE965
:1024300005230125FEF7DAF840F2FF2305A9274816
:10244000CDE90535CDE90744FEF7D0F8202305A9ED
:102450002848CDE90535CDE90744FEF7C7F87F23C5
:1024600005A91F48CDE90535CDE90744234DFEF701
:10247000BDF82349AC604F23C5E9001328460A2361
:10248000EB60AC61CDE90544FEF7AEFD05A9284639
:10249000CDE90544FEF7C2FD1A484FF41653C0E9D2
:1024A00000630C23184E0461C0E90534C0E90244FE
:1024B000C461FEF7EDFE2846FEF77AFC0FCE05ADAF
:1024C0000FC596E8070085E80700214605A8FEF736
:1024D00031FF0E4B1860FEF728FFFEE700080240B0
:1024E00000040240BC400020584000200038024058
:1024F0000044004000000240000021104041002044
:1025000000140040F840002048300008F43F00204C
:102510000268044B9A4204D11E2203490348FEF785
:10252000E5BE70470014004060400020F8400020E5
:1025300082B00E4B00220092596C41F480415964E4
:10254000596C01F48041009100990192196C41F09D
:10255000805119641B6C03F080530193019B0F2180
:102560006FF0010002B0FDF7FFBF00BF003802406E
:1025700007B50F4B02689A4216D1002203F50933C2
:102580000192196C41F0200119641B6C03F02003C7
:10259000019311463720019BFDF7E6FF372003B07A
:1025A0005DF804EBFEF714B803B05DF804FB00BF60
:1025B0000014004010B5044688B01422002103A87E
:1025C00000F02EFD2268154B9A4224D103F5FA3310
:1025D000002101911A6C124842F400321A641A6CFC
:1025E00002F400320192019A02911A6B42F0010248
:1025F0001A631B6B03F001030293029B0C2202235C
:102600000121CDE903230323CDE90513072303A902
:102610000793FDF7EBFF08B010BD00BF004400407A
:102620000000024030B5014689B000223620FDF797
:102630009BFF3620FDF7CCFF0025154B02951A6C49
:10264000144C42F010021A641B6C03F01003029346
:1026500001A903A8029BFEF7ABF9FEF789F90E4B1F
:10266000236040F2E733E36040000C4BB0FBF3F033
:102670000138606020462561A560FEF7B5FC20B9F1
:102680002046FEF795FB09B030BD0120FBE700BFF7
:1026900000380240884100200010004040420F00F6
:1026A0007047FEE7FEE7FEE7FEE770470148FEF7EA
:1026B00093BB00BF884100200148FEF78DBB00BFDF
:1026C000404100200F49D1F8883043F47003C1F82D
:1026D00088300D4B1A68002042F001021A609860A1
:1026E0001A6822F0847222F480321A60074A5A6013
:1026F0001A6822F480221A60D8604FF000638B6061
:10270000704700BF00ED00E00038024010300024A8
:102710000C4BDA6822F08072DA60DA6842F080727C
:10272000DA60094B1A6822F001021A601A6842F056
:1027300001021A6000225A605A6800BF00BF586840
:10274000801A7047F0ED00E0001000E0014B1868BF
:10275000704700BFD43F002038B50B78282B0446C3
:102760000D4601D0002038BD00F08EFA29462046E3
:1027700000F081FB2046442100F0EAFA012038BD38
:1027800010B5044600F080FA2046CC2100F0E0FAB3
:1027900020464421BDE8104000F0DABAF0B50B78CD
:1027A000282B85B007460C46154610D0002005B0F2
:1027B000F0BDC4F3420207EE902AFAEEEE7A5DE035
:1027C00004F00F0207EE902AFAEECE7A56E000F0FF
:1027D000A1FA0028EAD0384600F056FA21463846D9
:1027E00000F049FBBE21384600F0B2FA002401AEE9
:1027F000384600F0BDFA30550134092CF8D10821D3
:10280000304600F053FB9DF80C308342CED19DF84A
:1028100005309DF8046046EA032636B2384600F0DB
:1028200033FAB4B2002EBCBF6442A4B24FEA141310
:1028300003F0700244F3071343EA02039DF80820F3
:10284000C2F3411202F10902B4BF012100210B2A97
:10285000AFD00C2AB4D00A2A1BBFC4F3C00207EEC3
:10286000902AC4F38102F8EEE77A0DBF07EE902AB2
:10287000B6EE007A67EE877AFAEECF7A07EE103A74
:10288000B8EEC77A77EE277A19B19FED047A77EE22
:10289000677AC5ED007A012089E700BF00000000DB
:1028A0002DE9F8430B78282B04460E46914619D0A3
:1028B0000020BDE8F883B9F10A0F04D105F0BF0587
:1028C00045F020052FE0B9F10B0F04D105F0DF052D
:1028D00045F0400527E0B9F10C0F04BF45F0600555
:1028E000EDB220E000F0D0F93146204600F0C3FA06
:1028F000BE21204600F02CFA204600F039FA20468E
:1029000000F036FA204600F033FA0746204600F081
:102910002FFA8046204600F02BFAB9F1090F054640
:10292000C9D105F09F05204600F0AEF9314620469A
:1029300000F0A1FA20464E2100F00AFA394620465E
:1029400000F006FA4146204600F002FA29462046E9
:1029500000F0FEF9204600F097F93146204600F0DD
:102960008AFA2046482100F0F3F90120BDE8F883F7
:102970000078A0F128035842584170472DE9F041F2
:102980000B78282B04460E4602D00020BDE8F081CB
:102990006FF036059542B8BF154600F075F931461F
:1029A000204600F068FABE21204600F0D1F920460A
:1029B00000F0DEF9204600F0DBF9204600F0D8F9FF
:1029C0008046204600F0D4F9204600F0D1F90746B1
:1029D000204600F059F93146204600F04CFA2046D6
:1029E0004E2100F0B5F94146204600F0B1F97D2DA9
:1029F000A8BF7D25E9B2204600F0AAF93946204655
:102A000000F0A6F9204600F03FF93146204600F0DC
:102A100032FA2046482100F09BF90120BDE8F08100
:102A20002DE9F0410B78282B04460E4602D00020F9
:102A3000BDE8F0816FF036059542B8BF154600F04D
:102A400023F93146204600F016FABE21204600F058
:102A50007FF9204600F08CF9204600F089F92046E5
:102A600000F086F9204600F083F98046204600F009
:102A70007FF90746204600F007F93146204600F06E
:102A8000FAF920464E2100F063F97D2DA8BF7D257F
:102A9000E9B2204600F05CF94146204600F058F9C2
:102AA0003946204600F054F9204600F0EDF8314652
:102AB000204600F0E0F92046482100F049F90120C5
:102AC000BDE8F08100F026B930B50023032541FAB6
:102AD00003F2D20706D502685C0005FA04F422EA84
:102AE000040202600133102BF1D130BDF0B5002398
:102AF0000325012641FA03F2D20709D502685C00DA
:102B000005FA04F722EA070206FA04F422430260F7
:102B10000133102BEED1F0BD064A00F13F4000F525
:102B20007E00116BC0F38F2301209840084310638F
:102B3000704700BF003802402DE9F04F85B000F12A
:102B40003F459DF83840029405F57E059DF83C40D0
:102B5000DFF8A480039402F1FF3C01930024C5F345
:102B600087254FF0030A5FFA8CFC41FA04F6F3075D
:102B70003BD5012338F81560D0F80CE003FA04F9CE
:102B800049EA060628F8156004FA03F60AFA06F779
:102B9000029BFF4303FA06FB07EA0E0E4EEA0B0EFA
:102BA000C0F80CE0D0F800E002FA06FB0EEA070ECF
:102BB0004EEA0B0EBCF1010FC0F800E015D8D0F8BA
:102BC00004E0019B2EEA090903FA04FE1FFA8EFEB7
:102BD00049EA0E09C0F80490D0F808E0039B07EA20
:102BE0000E0703FA06F6374387600134102CBCD178
:102BF00005B0BDE8F08F00BFD83F00202DE9F047B9
:102C0000054616461F469DF820809DF824900C46E8
:102C100069B1FFF781FFCDF82490CDF820803B46C5
:102C2000324621462846BDE8F047FFF785BFBDE89C
:102C3000F087000037B5094C01906568FDF792FEFA
:102C4000019B074AB0FBF2F0434301936368019A8A
:102C50005B1B9342FAD303B030BD00BF001000E00D
:102C600040420F0073B50E4615460446FFF750FD6F
:102C7000012201920092002329463046FFF7BEFF51
:102C80002660A58002B070BD10B504460068A1881A
:102C90000B048361FFF72AFF4FF4F070FFF7CAFFC0
:102CA000A1882068FFF710FF4620FFF7C3FF2368C5
:102CB000A2881B691A4214BF012400244FF4CD706E
:102CC000FFF7B8FF204610BD10B504460068A38882
:102CD0001A04826191B11946FFF708FF0A20FFF735
:102CE000A9FF2068A188FFF7EFFE3720FFF7A2FFBA
:102CF000A1882068BDE81040FFF7E6BE1946FFF73F
:102D0000F5FE4120FFF796FF2068A188FFF7DCFE63
:102D10000520EBE710B504460068A1880B04836129
:102D2000FFF7E4FE0320FFF785FFA1882068FFF787
:102D3000CBFE0A20FFF77EFF2368A2881B691A4298
:102D400014BF012400243220FFF774FF204610BD79
:102D500070B506460D460924013C14F0FF0400D16D
:102D600070BD05F001013046FFF7AEFF6D08F3E7D7
:102D700070B5064609250024013D15F0FF0501D177
:102D8000204670BD3046FFF7C5FF640844EAC01412
:102D9000E4B2F1E72DE9F843037A04460D461BB986
:102DA000FFF772FF814628B10020A0712072E07108
:102DB000BDE8F88329462046FFF7CAFF01264F46A3
:102DC00035462046FFF7A6FF80462046FFF7A2FFC4
:102DD000B8F1010F10D101282ED1402DE4D984F88B
:102DE0000690B9F1000F01D101232372637A002B01
:102DF000DAD00120BDE8F883804504EB070310D149
:102E0000A279954212D25A7A164214BF4FF00108A5
:102E10004FF00008B8F1000F0ED1082D00D8E57171
:102E2000A9465A7A22EA06025A720BE00CBF4FF00A
:102E300001084FF00008EDE7E2194FF00108537A5E
:102E400033435372414620467600FFF73DFF16F0AC
:102E5000FF0604BF0137FFB205F1010508BF0126D7
:102E6000072FEDB2ADD9B8E7002282710272C271AC
:102E7000F021FFF78FBF70B50C4655210646FFF7CE
:102E800067FF651E073415F8011F3046FFF760FF26
:102E9000A542F8D170BD00F109030139113013F8D2
:102EA000012B01F8012F8342F9D1704730B501445D
:102EB0000023884201D1184630BD10F8014B08228A
:102EC00083EA040515F0010F4FEA530318BF83F09E
:102ED0008C0302F1FF3218BFDBB212F0FF024FEA9F
:102EE0005404EDD1E5E7000010B594B00023234A67
:102EF0000093116C41F080511164126C02F0805209
:102F00000092009A1E4A0193116841F440411160F9
:102F100012680A9302F440424FF4800301920E9328
:102F20000823019A0F9301224FF4B47302240792ED
:102F300010934FF48032072307A808920D94119440
:102F400012931393FDF79AFD10B1012014B010BD38
:102F5000FDF732FC0028F8D10F2302934FF4A05361
:102F60000490059306214FF4805302A8039406931E
:102F7000FDF75EFC003018BF0120E7E70038024093
:102F800000700040DFF834D0002103E00C4B5B58A8
:102F9000435004310B480C4B42189A42F6D30B4A6B
:102FA00002E0002342F8043B094B9A42F9D3FFF7B1
:102FB00089FB00F011F8FFF7C1F97047000002200B
:102FC000A0300008000000201400002014000020A1
:102FD000C8410020FEE7000070B50D4E0D4CA41B4B
:102FE000A4100025A54209D10B4E0C4C00F020F88E
:102FF000A41BA4100025A54205D170BD56F82530AC
:1030000098470135EEE756F8253098470135F2E745
:103010009830000898300008983000089C3000086C
:1030200002440346934200D1704703F8011BF9E7BD
:10303000F8B500BFF8BC08BC9E467047F8B500BFA5
:08304000F8BC08BC9E46704775
:103048006930000829210008FDFF00000000000089
:1030580080000000000000000000000049444C45CA
:103068000064656661756C745461736B00000000E0
:103078000000000000010203040607080900000020
:08308800000102030400000036
:08309000B0D1FF7F0100000038
:04309800F501000836
:04309C00D101000856
:1030A000AAAAAAAA013F065B4F666D7D077F67004B
:0430B0000024F40004
:0400000508002F853B
:00000001FF
